:020000040800F2
:1000000068060020650200086D0200086F02000803
:100010007102000873020008750200080000000069
:10002000000000000000000000000000770200084F
:1000300079020008000000007B0200087D02000831
:100040007F0200087F0200087F0200087F0200088C
:100050007F0200087F0200087F0200087F0200087C
:100060007F0200087F0200087F0200087F0200086C
:100070007F0200087F0200087F0200087F0200085C
:100080007F0200087F0200087F02000800000000D5
:100090000000000000000000000000007F020008D7
:1000A0007F0200087F0200087F0200087F0200082C
:1000B0007F0200087F0200087F0200087F0200081C
:1000C0007F0200087F0200087F0200087F0200080C
:1000D0007F0200087F0200087F0200080000000085
:1000E0007F0200087F0200087F0200080000000075
:1000F0000000000000000000000000007F02000877
:10010000000000007F0200087F0200087F02000854
:1001100000000000000000000000000000000000DF
:100120007F0200087F0200087F0200087F020008AB
:100130007F02000800000000000000000000000036
:100140000000000000000000000000007F02000826
:100150007F0200087F0200087F0200087F0200087B
:100160007F0200087F02000800000000000000007D
:10017000000000000000000000000000000000007F
:10018000000000007F0200080000000000000000E6
:100190007F0200087F02000800F002F800F052F829
:1001A00014A696E8000CB244B344DA4501D100F03D
:1001B00049F8BAE80F000FA696E83000A5EB040551
:1001C00004EB0607AAEB0704A7F101074FEA151590
:1001D0004FEA3414A4F10104AC4201D300F032F828
:1001E00013F0010F18BFFB1A43F0010300F001F8F0
:1001F000DBE718475C0700007C070000103A24BFCB
:1002000078C878C1FAD8520724BF30C830C144BF7B
:1002100004680C6070470000704700000023002451
:1002200000250026103A28BF78C1FBD8520728BF06
:1002300030C148BF0B6070471FB500F07CFB1FBD8D
:1002400010B510BD00F031F81146FFF7F5FF00F0D2
:100250006BFA00F04FF803B4FFF7F2FF03BC00F0B5
:1002600057F800000948804709480047FEE7FEE7C5
:10027000FEE7FEE7FEE7FEE7FEE7FEE7FEE7FEE756
:1002800004480549054A064B70470000310600083E
:10029000990100086800002068060020680200201C
:1002A00068020020704770477047754600F02CF8D0
:1002B000AE4605006946534620F00700854618B053
:1002C00020B5FFF7DDFFBDE820404FF000064FF0FE
:1002D00000074FF000084FF0000BAC46ACE8C00937
:1002E000ACE8C009ACE8C009ACE8C00921F00701DE
:1002F0008D46704710B50446AFF300802046BDE838
:100300001040FFF7A8BF0000004870470800002019
:1003100001491820ABBEFEE726000200704700002E
:1003200080B584B08DF80F0002919DF90F0001A9EE
:100330006A4600F09BF99DF90F0000F0F9F89DF96D
:100340000F00029900F002F804B080BD80B584B0BF
:100350008DF80F0002919DF90F0001A96A4600F087
:1003600085F900984100032000FA01F2019908681C
:100370009043086002980099490000FA01F201993F
:1003800008681043086004B080BD000080B584B0E8
:100390008DF80F0002919DF90F0001A96A4600F047
:1003A00065F900984100032000FA01F2019988687C
:1003B0009043886002980099490000FA01F201997F
:1003C00088681043886004B080BD000080B584B0A8
:1003D0008DF80F0002919DF90F0001A96A4600F007
:1003E00045F90099012000FA01F20199486890430B
:1003F00048600298009900FA01F201994868104398
:10040000486004B080BD000080B584B08DF80F0056
:1004100002919DF90F0001A96A4600F027F90098A2
:100420004100032000FA01F20199C8689043C860B6
:1004300002980099490000FA01F20199C868104336
:10044000C86004B080BD000080B584B08DF80F0096
:100450009DF90F0002A901AA00F008F902980069AD
:100460000199C84000F001000090009804B080BDE0
:1004700080B584B08DF80F0002919DF90F0001A99D
:100480006A4600F0F3F80298012809D1FFE70298C4
:10049000009900FA01F2019948691043486108E0A7
:1004A0000099012000FA01F20199486990434861DE
:1004B000FFE704B080BD000043F63001C4F2020142
:1004C000086840F0010008607047000043F6300102
:1004D000C4F20201086840F00200086070470000A2
:1004E00043F63001C4F20201086840F004000860DD
:1004F0007047000043F63001C4F20201086840F082
:10050000080008607047000043F63001C4F20201A1
:10051000086840F0100008607047000043F63001A2
:10052000C4F20201086840F08000086070470000D3
:1005300080B584B08DF80F009DF90F0002A901AAC3
:1005400000F094F802980021C4F20201884203D11D
:10055000FFE7FFF7B1FFFFE7029840F60001C4F2A2
:100560000201884203D1FFE7FFF7BAFFFFE70298D5
:1005700040F20041C4F20201884203D1FFE7FFF7D5
:10058000A5FFFFE7029840F60041C4F2020188424D
:1005900003D1FFE7FFF7AEFFFFE7029841F200014A
:1005A000C4F20201884203D1FFE7FFF7ADFFFFE786
:1005B000029841F60041C4F20201884203D1FFE7EC
:1005C000FFF7ACFFFFE704B080BD000043F6000179
:1005D000C4F20201086840F001000860FFE743F63A
:1005E0000000C4F2020000688007002801D4FFE781
:1005F000F5E743F60801C4F20201086820F00300A1
:10060000086008680860FFE743F60800C4F20200CB
:10061000006810F00C0F01D0FFE7F5E740F2000191
:10062000C2F2000142F20040C0F2F40008607047DC
:100630004EF68851CEF20001086840F47000086060
:100640007047000082B0019000200090FFE7009802
:1006500001994FF47A725143884205DAFFE7FFE7C8
:10066000009801300090F2E702B0704785B08DF835
:100670001300039102929DF8130000F00F00019007
:100680000198029908609DF91300001100900098EC
:1006900030B9FFE703990020C4F20200086041E08E
:1006A0000098012807D1FFE7039940F20040C4F207
:1006B0000200086035E00098022807D1FFE703999F
:1006C00040F60000C4F20200086029E00098032808
:1006D00007D1FFE7039940F60040C4F2020008602A
:1006E0001DE00098042807D1FFE7039941F20000BC
:1006F000C4F20200086011E00098072807D1FFE764
:10070000039941F60040C4F20200086005E0039935
:100710000020C4F202000860FFE7FFE7FFE7FFE701
:10072000FFE7FFE705B0704780B58AB0002004906E
:10073000099000F09BF8049801210891322106915C
:100740000590FFE72D20FFF77FFE0790089801280E
:1007500040F08880FFE70798002840F08380FFE79B
:100760000698FFF76FFF2D20FFF76EFE07900798A2
:10077000002876D1FFE70598C11700EB917121F0B1
:100780000301401A05900598A8B9FFE7062000214B
:100790000391FFF76DFE03990720FFF769FE05201F
:1007A0000121FFF765FE03991620FFF761FE05980A
:1007B000013005904DE00598012815D1FFE705208F
:1007C00000210291FFF754FE02990720FFF750FE27
:1007D00006200121FFF74CFE02991620FFF748FE84
:1007E00005980130059033E00598022815D1FFE700
:1007F000052000210191FFF73BFE01990620FFF73C
:1008000037FE07200121FFF733FE01991620FFF77D
:100810002FFE05980130059019E00598032815D1A1
:10082000FFE7052000210091FFF722FE0099062036
:10083000FFF71EFE00990720FFF71AFE1620012180
:10084000FFF716FE059801300590FFE7FFE7FFE789
:10085000FFE7FFE72D20FFF7F7FD08B9FFE7F9E70E
:10086000FFE7FFE7079808906CE7000080B588B0C5
:10087000FFF7ACFE2D20019000210791FFF750FDFE
:10088000019801210291FFF7BFFD02990520039015
:10089000FFF746FD02990398FFF7B6FD0398079905
:1008A000FFF794FD02990398FFF770FD0299062067
:1008B0000490FFF735FD02990498FFF7A5FD049811
:1008C0000799FFF783FD02990498FFF75FFD0299EE
:1008D00007200590FFF724FD02990598FFF794FD86
:1008E00005980799FFF772FD02990598FFF74EFDED
:1008F000029916200690FFF713FD02990698FFF75C
:1009000083FD06980799FFF761FD02990698FFF7A6
:100910003DFD03980799FFF7ABFD04980799FFF792
:10092000A7FD05980799FFF7A3FD06980799FFF71C
:100930009FFD08B080BDF1EE100A4FF6FF71C0F2C6
:10094000C03120EA010040F04070E1EE100A70472B
:10095000700900080000002008000000FC010008E9
:100960007809000808000020600600001C0200084A
:080970000024F4000000000067
:040000050800019955
:00000001FF
