:020000040800F2
:1000000010070020650200086D0200086F0200085A
:100010007102000873020008750200080000000069
:10002000000000000000000000000000770200084F
:1000300079020008000000007B020008B10B0008F4
:100040007F0200087F0200087F0200087F0200088C
:100050007F0200087F0200087F0200087F0200087C
:100060007F0200087F0200087F0200087F0200086C
:100070007F0200087F0200087F0200087F0200085C
:100080007F0200087F0200087F02000800000000D5
:100090000000000000000000000000007F020008D7
:1000A0007F0200087F0200087F0200087F0200082C
:1000B0007F0200087F0200087F0200087F0200081C
:1000C0007F0200087F0200087F0200087F0200080C
:1000D0007F0200087F0200087F0200080000000085
:1000E000210300087F0200087F02000800000000D2
:1000F0000000000000000000000000007F02000877
:10010000000000007F0200087F0200087F02000854
:1001100000000000000000000000000000000000DF
:100120007F0200087F0200087F0200087F020008AB
:100130007F02000800000000000000000000000036
:100140000000000000000000000000007F02000826
:100150007F0200087F0200087F0200087F0200087B
:100160007F0200087F02000800000000000000007D
:10017000000000000000000000000000000000007F
:10018000000000007F0200080000000000000000E6
:100190007F0200087F02000800F002F800F052F829
:1001A00014A696E8000CB244B344DA4501D100F03D
:1001B00049F8BAE80F000FA696E83000A5EB040551
:1001C00004EB0607AAEB0704A7F101074FEA151590
:1001D0004FEA3414A4F10104AC4201D300F032F828
:1001E00013F0010F18BFFB1A43F0010300F001F8F0
:1001F000DBE71847EC1000000C110000103A24BF98
:1002000078C878C1FAD8520724BF30C830C144BF7B
:1002100004680C6070470000704700000023002451
:1002200000250026103A28BF78C1FBD8520728BF06
:1002300030C148BF0B6070471FB501F043F81FBDC8
:1002400010B510BD00F031F81146FFF7F5FF00F0D2
:100250001BFE00F04FF803B4FFF7F2FF03BC00F001
:1002600057F800000948804709480047FEE7FEE7C5
:10027000FEE7FEE7FEE7FEE7FEE7FEE7FEE7FEE756
:1002800004480549054A064B704700002D0C00083C
:100290009901000810010020100700201003002021
:1002A00010030020704770477047754600F02CF827
:1002B000AE4605006946534620F00700854618B053
:1002C00020B5FFF7DDFFBDE820404FF000064FF0FE
:1002D00000074FF000084FF0000BAC46ACE8C00937
:1002E000ACE8C009ACE8C009ACE8C00921F00701DE
:1002F0008D46704710B50446AFF300802046BDE838
:100300001040FFF7A8BF000000487047A000002081
:1003100001491820ABBEFEE726000200704700002E
:1003200080B52D2000F094FD48B1FFE700F01EFCE1
:10033000012000F011FD2D2000F0F6FCFFE780BD4C
:1003400080B58AB08DF82700089107929DF92700A3
:1003500006A905AA00F01EFD43F64401C4F20201FD
:10036000086840F48040086006980021C4F2020149
:10037000884203D1FFE70020049032E0069840F263
:100380000041C4F20201884203D1FFE7012004903A
:1003900026E0069840F60001C4F20201884203D12B
:1003A000FFE7022004901AE0069840F60041C4F2EC
:1003B0000201884203D1FFE7032004900EE0069873
:1003C00041F20001C4F20201884203D1FFE7042098
:1003D000049002E007200490FFE7FFE7FFE7FFE754
:1003E000FFE7059800F0030003900598800802904D
:1003F000039881000F2000FA01F3029A43F60801E6
:10040000C4F2010151F82200984341F822000498F7
:10041000039A920000FA02F3029A51F8220018435C
:1004200041F82200089860B9FFE70599012000FA19
:1004300001F243F60C41C4F2010108681043086060
:100440002BE0089801280CD1FFE70599012000FA5C
:1004500001F243F60841C4F2010108681043086044
:100460001AE00898022816D1FFE70599012000FA42
:1004700001F343F60842C4F2010211681943116006
:10048000059900FA01F243F60C41C4F20101086833
:1004900010430860FFE7FFE7FFE70599012000FA36
:1004A00001F243F60041C4F20101086810430860FC
:1004B000002001900598042804D8FFE7059806302D
:1004C00001900AE00598092803D8FFE7172001905A
:1004D00002E028200190FFE7FFE79DF9040007995B
:1004E00000F0DEFB9DF9040000F0AAFB0AB080BD1D
:1004F00080B584B08DF80F0002919DF90F0001A91D
:100500006A4600F047FC9DF90F0000F0E5F89DF900
:100510000F00029900F002F804B080BD80B584B0ED
:100520008DF80F0002919DF90F0001A96A4600F0B5
:1005300031FC00984100032000FA01F2019908689B
:100540009043086002980099490000FA01F201996D
:1005500008681043086004B080BD000080B584B016
:100560008DF80F0002919DF90F0001A96A4600F075
:1005700011FC00984100032000FA01F201998868FB
:100580009043886002980099490000FA01F20199AD
:1005900088681043886004B080BD000080B584B0D6
:1005A0008DF80F0002919DF90F0001A96A4600F035
:1005B000F1FB0099012000FA01F20199486890438B
:1005C00048600298009900FA01F2019948681043C6
:1005D000486004B080BD000080B584B08DF80F0085
:1005E00002919DF90F0001A96A4600F0D3FB009823
:1005F0004100032000FA01F20199C8689043C860E5
:1006000002980099490000FA01F20199C868104364
:10061000C86004B080BD000080B584B08DF80F00C4
:1006200002919DF90F0001A96A4600F0B3FB029800
:10063000012809D1FFE70298009900FA01F2019917
:1006400048691043486108E00099012000FA01F26E
:100650000199486990434861FFE704B080BD0000FC
:1006600043F63001C4F20201086840F0010008605E
:100670007047000043F63001C4F20201086840F000
:10068000020008607047000043F63001C4F2020126
:10069000086840F0040008607047000043F630012D
:1006A000C4F20201086840F00800086070470000CA
:1006B00043F63001C4F20201086840F010000860FF
:1006C0007047000043F63001C4F20201086840F0B0
:1006D000800008607047000080B584B08DF80F007E
:1006E0009DF90F0002A901AA00F054FB0298002115
:1006F000C4F20201884203D1FFE7FFF7B1FFFFE731
:10070000029840F60001C4F20201884203D1FFE7DB
:10071000FFF7BAFFFFE7029840F20041C4F202017E
:10072000884203D1FFE7FFF7A5FFFFE7029840F6F5
:100730000041C4F20201884203D1FFE7FFF7AEFF98
:10074000FFE7029841F20001C4F20201884203D19E
:10075000FFE7FFF7ADFFFFE7029841F60041C4F263
:100760000201884203D1FFE7FFF7ACFFFFE704B0C7
:1007700080BD000081B043F60041C4F20201086868
:1007800020F007000860086840F00200086043F6A7
:100790000001C4F20201086840F001000860FFE7B0
:1007A00043F60000C4F2020000688007002801D46C
:1007B000FFE7F5E743F60001C4F20201086820F004
:1007C0008070086043F60402C4F2020200921068CE
:1007D00020F480001060106810601068542363F3E8
:1007E0008E1010601068082363F305001060106815
:1007F00020F440301060086840F080700860FFE727
:1008000043F60000C4F20200006800F0007100200E
:10081000B0EB516F01D0FFE7F2E743F60801C4F2F5
:100820000201086820F003000860086840F0020038
:100830000860FFE743F60800C4F20200006800F019
:100840000C00082801D0FFE7F4E743F60801C4F2E2
:100850000201086820F0F0000860086820F4E05009
:100860000860086840F480500860086820F4604020
:10087000086040F20001C2F200014BF60050C0F2E5
:100880000150086001B0704780B586B08DF8170040
:100890008DF816108DF815208DF814309DF817007E
:1008A00040F20411C2F2000108709DF81600487071
:1008B0009DF8150088709DF81400C8709DF8170009
:1008C0008DF810009DF816008DF811009DF81500A8
:1008D0008DF812009DF814008DF81300002003908D
:1008E000FFE7039803281FDCFFE7039904A80290A1
:1008F00040560121FFF7FCFD029803994056002164
:100900000191FFF769FE01990298039A8056FFF75B
:1009100045FE0298039940560221FFF71FFEFFE7AC
:10092000039801300390DCE706B080BD80B586B047
:1009300005900491049801283DD1FFE740F204108E
:10094000C2F20000029090F90000059901EB41020B
:1009500040F20401C2F20001039111F82210C1F328
:10096000C001FFF759FE0298039990F90100059A1A
:1009700002EB420211F82210C1F38001FFF74CFE96
:100980000298039990F90200059A02EB420211F8CD
:100990002210C1F34001FFF73FFE0298039990F93E
:1009A0000300059A02EB420211F8221001F0010146
:1009B000FFF732FE40E00498E8BBFFE740F2041086
:1009C000C2F20000009090F90000059901EB41028D
:1009D00040F23401C2F20001019111F82210C1F37A
:1009E000C001FFF719FE0098019990F90100059ADE
:1009F00002EB420211F82210C1F38001FFF70CFE56
:100A00000098019990F90200059A02EB420211F850
:100A10002210C1F34001FFF7FFFD0098019990F902
:100A20000300059A02EB420211F8221001F00101C5
:100A3000FFF7F2FDFFE7FFE706B080BD0000000012
:100A400080B582B0019040F29800C2F200000068C8
:100A50000199484300F0CFFB41EC100B53EC102BF5
:100A60009FED150B51EC100B00F03CFA41EC100B14
:100A700051EC100B00F092FB014640F29400C2F2E0
:100A8000000000900160006800F0B5FB41EC100B25
:100A90009FED0B1B53EC112B51EC100B00F022FAC5
:100AA00041EC100B51EC100B00F078FB0099086042
:100AB00002B080BD00BF00BF00000000389C8C4128
:100AC0000000000000408F4080B584B00390029188
:100AD000019200200090039840F20411C2F200013C
:100AE0004860FFE740F20410C2F200004068D0B353
:100AF000FFE740F29400C2F20000006800F02CF919
:100B0000019801280FD1FFE7009800EB400140F267
:100B10000400C2F2000000EB8100029900EB8100AA
:100B20004068009012E0019878B9FFE7009800EB68
:100B3000400140F23400C2F2000000EB8100029953
:100B400000EB810040680090FFE7FFE70098019903
:100B5000FFF7ECFEFFE740F20411C2F20001486823
:100B600001384860BEE704B080BD000080B582B0A7
:100B700040F20410C2F20000009000210191416097
:100B800090F90000FFF748FD0098019990F90100E5
:100B9000FFF742FD0098019990F90200FFF73CFD34
:100BA0000098019990F90300FFF736FD02B080BD6F
:100BB00080B500F001F880BD40F20011C2F20001E2
:100BC000086801300860704780B582B001904EF22D
:100BD0001001CEF20001002008600A6842F0040211
:100BE0000A60019B4BF60052C0F20152B2FBF3F2D5
:100BF000013A4EF21403CEF200031A604EF21802CC
:100C0000CEF200021060086840F002000860086838
:100C100040F0010008604FF0FF300090102100F01C
:100C200061F8009800F024F802B080BD4EF68851BB
:100C3000CEF20001086840F47000086070470000C0
:100C400081B08DF803009DF9030000280ED4FFE762
:100C50009DF9031001F01F02012090404A094EF255
:100C60000011CEF2000141F82200FFE701B0704709
:100C700081B08DF803009DF9030000280ED4FFE732
:100C80009DF9031001F01F02012090404A094EF225
:100C90000011CEF2000141F82200FFE701B07047D9
:100CA00082B08DF8070000919DF9070000280AD452
:100CB000FFE7009800019DF907104EF20042CEF2C6
:100CC000000288540BE0009800019DF8071001F025
:100CD0000F014EF61452CEF200028854FFE702B024
:100CE0007047000082B08DF8070000919DF9070061
:100CF00000280AD4FFE7009800019DF907104EF282
:100D00000042CEF2000288540BE0009800019DF8EA
:100D1000071001F00F014EF61452CEF20002885473
:100D2000FFE702B07047000080B584B08DF80F0077
:100D30009DF90F0002A901AA00F02CF801990120E9
:100D400000FA01F243F61441C4F2010108681043AD
:100D5000086004B080BD000082B0019040F2001035
:100D6000C2F2000000680090FFE740F20010C2F2FB
:100D7000000000680099401A0199884201D2FFE7FB
:100D8000F3E740F20011C2F200010020086002B057
:100D90007047000085B08DF81300039102929DF812
:100DA000130000F00F0001900198029908609DF96E
:100DB000130000110090009830B9FFE7039900205C
:100DC000C4F20200086041E00098012807D1FFE763
:100DD000039940F20040C4F20200086035E0009838
:100DE000022807D1FFE7039940F60000C4F2020091
:100DF000086029E00098032807D1FFE7039940F62F
:100E00000040C4F2020008601DE00098042807D1E9
:100E1000FFE7039941F20000C4F20200086011E00C
:100E20000098072807D1FFE7039941F60040C4F274
:100E30000200086005E003990020C4F20200086087
:100E4000FFE7FFE7FFE7FFE7FFE7FFE705B07047D2
:100E500080B584B08DF80F009DF90F0002A901AA9A
:100E6000FFF798FF019901208840009043F6144055
:100E7000C4F20100006800990840401AB0FA80F0FE
:100E8000400904B080BD000080B582B00020009011
:100E9000019000F009F800994FF480500122FFF70B
:100EA00013FEFFE7FEE7000080B582B0FFF762FCAB
:100EB0004FF47A70FFF788FE2D20009000210191F9
:100EC000FFF716FB0098019A1146FFF739FA1A202E
:100ED000142115221323FFF7D7FC0220FFF7B0FDE2
:100EE00002B080BD2DE9C04130B4DFF8A8C23CEAB1
:100EF000111418BF3CEA131400F0F0801CEA11141E
:100F000081EA030544EAD57418BF1CEA131500F002
:100F1000CB80A4EB050404F17F7404F500344FF09A
:100F2000004545EAC12145EAC32341EA505143EA5D
:100F300052534FEAC0204FEAC222994208BF904262
:100F400000F0A0804FEA13650FF24816765D4FEA75
:100F5000134506FB05F7C7F1807706FB07F74FEA55
:100F6000D737A7FB03687642A7FB06CEC8F58038C3
:100F700038BFA8F1010807FB08E6A6FB028C4FF07A
:100F8000000EE6FB03CED8F100086FEA0C0C5CF112
:100F9000000C6FEA0E0E4EF1004EA6FB0C584FF0FF
:100FA0000007E6FB0E87A1FB08C6A0FB07CE16EBE9
:100FB0000E064FF0000545F10005E1FB076515F150
:100FC000E04E7EBFA4F580345FEA46066D4116F11F
:100FD000800745F100054FEA172747EA05674FEA02
:100FE00015254FEA0666A6F1DE46B6F1805F20D9E8
:100FF000384605EBC47124F0010C01EB0C11BCF177
:10100000FE6F02D8F0BCBDE8008124425CBF01F550
:10101000801E9EEAC47F02D4F0BCBDE80081244259
:1010200000F13980A1F1C041F0BCBDE8004100F001
:1010300043B94FEAD02040EA41504FEAD1214FEA6C
:10104000D22242EA43524FEAD323A7FB028607FB90
:10105000036605FB02661EEA0E0F58BFA6EB00569C
:10106000B6EB00564FEA520E4EEAC37E18EB0E0E58
:1010700056EB530EBCD518EB02085E417F1C55F1B0
:101080000005B5E74FF480154FF000074FF000065C
:101090004FF00008ACE701F1C04101F000414FF012
:1010A0000000F0BCBDE800810CEA131511EA0C1F2A
:1010B00000D00CE013EA0C1F00F025804FF0000078
:1010C00081EA030101F00041F0BCBDE80081F0BC01
:1010D000BDE8004181EA030100F0EEB8F0BCBDE8D4
:1010E000004170B500F09AF8097EFC3E00F007B8A8
:1010F0004FF0000081EA030101F00041704781EAEE
:10110000030100F0D9B8F0BCBDE8004122494FF01E
:1011100000007047FFFDFBF9F7F5F4F2F0EEEDEBA0
:10112000E9E8E6E4E3E1E0DEDDDBDAD8D7D5D4D3E5
:10113000D1D0CFCDCCCBCAC8C7C6C5C4C2C1C0BF31
:10114000BEBDBCBBBAB9B8B7B6B5B4B3B2B1B0AF37
:10115000AEADACABAAA9A8A8A7A6A5A4A3A3A2A11B
:10116000A09F9F9E9D9C9C9B9A99999897979695D6
:1011700095949393929191908F8F8E8E8D8C8C8B72
:101180008B8A8989888887878685858484838382FA
:10119000828181800000FF070000F87F4FEA115331
:1011A000A3F58063D3F11E03A8BFD3F1200C08DBA5
:1011B0004FF0004242EAC12252EA505232FA03F0A2
:1011C000704709420BD4102BC4BF0020704703F5B1
:1011D000787CBCF1FF3F05D04FF0FF3070474FF0F7
:1011E0000000704770B500F019F800BF49922480E4
:1011F00000207047F0E7B0FA80F310FA03F10AD04C
:10120000C3F11D0303F580634FEA03524FEA4150D7
:1012100002EBD12170474FF0000070470EF1020E33
:101220002EF0030E5EF8046B364205D4012A43EB20
:10123000030515F5001F12D8012841EB010C1CF520
:10124000001F0CD80ED14FEAD17C0CEB4C0C0CF1EA
:10125000020C15F5001F08BF4CEBD37C04E04FF0E7
:10126000080C01E04FEAD37C0CEB4C0526FA05F69E
:1012700006F00706B6F1040C06D20EEB860CBDE8AC
:1012800070404CF0010C6047DFE80CF0090B0202E3
:101290004FF00041A1F500214FF0000070BD19464C
:1012A0001046012851EB010418BFD4F5001484BF87
:1012B000002001F0004170BD0808A0F500114FEAC0
:1012C00031017047F1EE100A4FF6FF71C0F2C031E4
:1012D00020EA010040F04070E1EE100A7047000083
:1012E0000013000800000020A0000000FC0100081E
:1012F000A0130008A0000020700600001C020008D7
:101300000024F4000C0000000100000003000000B5
:1013100006000000020000000000000003000000C2
:1013200003000000010000000900000000000000B0
:10133000020000000800000001000000070000009B
:101340000C0000000200000000000000040000008B
:10135000030000000100000006000000040000007F
:101360000200000002000000050000000300000071
:10137000030000000600000004000000010000005F
:101380000700000005000000090000000000000048
:1013900006000000640000000008000000000000DB
:040000050800019955
:00000001FF
