:020000040800F2
:1000000070060020650200086D0200086F020008FB
:100010007102000873020008750200080000000069
:10002000000000000000000000000000770200084F
:1000300079020008000000007B020008950E00080D
:100040007F0200087F0200087F0200087F0200088C
:100050007F0200087F0200087F0200087F0200087C
:100060007F0200087F0200087F0200087F0200086C
:100070007F0200087F0200087F0200087F0200085C
:100080007F0200087F0200087F02000800000000D5
:100090000000000000000000000000007F020008D7
:1000A0007F0200087F0200087F0200087F0200082C
:1000B0007F020008C10E00087F0200087F020008CE
:1000C0007F0200087F0200087F0200087F0200080C
:1000D0007F0200087F0200087F0200080000000085
:1000E000210300087F0200087F02000800000000D2
:1000F0000000000000000000000000007F02000877
:10010000000000007F0200087F0200087F02000854
:1001100000000000000000000000000000000000DF
:100120007F0200087F0200087F0200087F020008AB
:100130007F02000800000000000000000000000036
:100140000000000000000000000000007F02000826
:100150007F0200087F0200087F0200087F0200087B
:100160007F0200087F02000800000000000000007D
:10017000000000000000000000000000000000007F
:10018000000000007F0200080000000000000000E6
:100190007F0200087F02000800F002F800F052F829
:1001A00014A696E8000CB244B344DA4501D100F03D
:1001B00049F8BAE80F000FA696E83000A5EB040551
:1001C00004EB0607AAEB0704A7F101074FEA151590
:1001D0004FEA3414A4F10104AC4201D300F032F828
:1001E00013F0010F18BFFB1A43F0010300F001F8F0
:1001F000DBE718479C1A0000BC1A0000103A24BF25
:1002000078C878C1FAD8520724BF30C830C144BF7B
:1002100004680C6070470000704700000023002451
:1002200000250026103A28BF78C1FBD8520728BF06
:1002300030C148BF0B6070471FB501F016FD1FBDF0
:1002400010B510BD00F031F81146FFF7F5FF01F0D1
:100250004FF900F04FF803B4FFF7F2FF03BC00F0D2
:1002600057F800000948804709480047FEE7FEE7C5
:10027000FEE7FEE7FEE7FEE7FEE7FEE7FEE7FEE756
:1002800004480549054A064B70470000AD0E0008BA
:100290009901000870000020700600207002002004
:1002A00070020020704770477047754600F02CF8C8
:1002B000AE4605006946534620F00700854618B053
:1002C00020B5FFF7DDFFBDE820404FF000064FF0FE
:1002D00000074FF000084FF0000BAC46ACE8C00937
:1002E000ACE8C009ACE8C009ACE8C00921F00701DE
:1002F0008D46704710B50446AFF300802046BDE838
:100300001040FFF7A8BF0000004870470800002019
:1003100001491820ABBEFEE726000200704700002E
:1003200080B52D2001F0C8F850B1FFE74FF08041B3
:10033000086880F0010008602D2001F03FF8FFE719
:1003400080BD000080B58AB08DF827000891079223
:100350009DF9270006A905AA01F048F843F64401D3
:10036000C4F20201086840F4804008600698002149
:10037000C4F20201884203D1FFE70020049032E07A
:10038000069840F20041C4F20201884203D1FFE71F
:100390000120049026E0069840F60001C4F2020114
:1003A000884203D1FFE7022004901AE0069840F645
:1003B0000041C4F20201884203D1FFE70320049008
:1003C0000EE0069841F20001C4F20201884203D116
:1003D000FFE70420049002E007200490FFE7FFE716
:1003E000FFE7FFE7FFE7059800F00300039005989B
:1003F00080080290039881000F2000FA01F3029A0E
:1004000043F60801C4F2010151F82200984341F873
:1004100022000498039A920000FA02F3029A51F81B
:100420002200184341F82200089860B9FFE70599B7
:10043000012000FA01F243F60C41C4F20101086800
:10044000104308602BE0089801280CD1FFE70599BC
:10045000012000FA01F243F60841C4F201010868E4
:10046000104308601AE00898022816D1FFE70599A2
:10047000012000FA01F343F60842C4F201021168B8
:1004800019431160059900FA01F243F60C41C4F2D8
:100490000101086810430860FFE7FFE7FFE70599DF
:1004A000012000FA01F243F60041C4F2010108689C
:1004B00010430860002001900598042804D8FFE745
:1004C0000598063001900AE00598092803D8FFE74F
:1004D0001720019002E028200190FFE7FFE79DF937
:1004E0000400079900F01CFF9DF9040000F0E8FEED
:1004F0000AB080BD80B584B08DF80F0002919DF9DF
:100500000F0001A96A4600F071FF9DF90F0000F08D
:10051000E9FB9DF90F00029900F002F804B080BDDC
:1005200080B584B08DF80F0002919DF90F0001A9EC
:100530006A4600F05BFF00984100032000FA01F2D8
:10054000019908689043086002980099490000FAF0
:1005500001F2019908681043086004B080BD0000F2
:1005600080B584B08DF80F0002919DF90F0001A9AC
:100570006A4600F03BFF00984100032000FA01F2B8
:10058000019988689043886002980099490000FAB0
:1005900001F2019988681043886004B080BD0000B2
:1005A00080B584B08DF80F0002919DF90F0001A96C
:1005B0006A4600F01BFF0099012000FA01F2019940
:1005C0004868904348600298009900FA01F2019946
:1005D00048681043486004B080BD000080B584B016
:1005E0008DF80F0002919DF90F0001A96A4600F0F5
:1005F000FDFE00984100032000FA01F20199C8684D
:100600009043C86002980099490000FA01F20199EC
:10061000C8681043C86004B080BD000080B588B0D1
:100620008DF81F008DED060A9DF91F0005A904AA8B
:1006300000F0DCFE9DF91F0003A902AA00F008FAF1
:100640000398C06A01900198013000EE100AB8EEDC
:10065000400A9DED061A20EE010A8DED000A02986F
:10066000012808D1FFE79DED000A0398BCEEC00AFF
:1006700080ED0D0A26E00298022808D1FFE79DEDE3
:10068000000A0398BCEEC00A80ED0E0A19E0029839
:10069000032808D1FFE79DED000A0398BCEEC00ACD
:1006A00080ED0F0A0CE00298042808D1FFE79DEDC9
:1006B000000A0398BCEEC00A80ED100AFFE7FFE7CE
:1006C000FFE7FFE708B080BD80B58CB08DF82F0044
:1006D0009DF92F000AA909AA00F088FE9DF92F00B4
:1006E00008A907AA00F0B4F99DF92F000221FFF72D
:1006F00001FF9DF92F0000210491FFF751FF04999C
:100700009DF92F00FFF76AFF9DF92F000321FFF7E6
:1007100027FF0A980021C4F20201884229D1FFE78D
:10072000099803900F2822D80399DFE801F0080BFD
:100730002020200E112014171A202020201D012017
:10074000069015E00120069012E0012006900FE0CF
:10075000022006900CE00120069009E0012006909E
:1007600006E00120069003E00120069000E0FFE78C
:1007700051E00A9840F20041C4F20201884227D1B8
:10078000FFE7099803380146029107281ED802990D
:10079000DFE801F004070A0D101316190120069076
:1007A00015E00220069012E0022006900FE00220E1
:1007B00006900CE00220069009E00220069006E078
:1007C0000220069003E00120069000E0FFE721E010
:1007D0000A9840F60001C4F20201884219D1FFE7ED
:1007E0000998063801460191032810D80199DFE8DD
:1007F00001F00205080B0220069009E00220069095
:1008000006E00220069003E00220069000E0FFE7E9
:10081000FFE7FFE7FFE70998072813D8FFE70998E4
:1008200081000F2000FA01F20A99086A90430862D9
:1008300006980999890000FA01F20A99086A10439A
:1008400008621BE009980F2817D8FFE709986FF096
:100850001F0101EB80020F2000FA02F30A9A506A8E
:10086000984350620698099A01EB820100FA01F25E
:100870000A99486A10434862FFE7FFE7089800F0CA
:10088000FBFB0898642100F097FC0899086820F0A9
:10089000010008600899086820F0100008600898B6
:1008A000C06A013000F071FF41EC100B9FED541B4A
:1008B00053EC112B51EC100B00F07AFF41EC100BB4
:1008C00051EC100B00F034FF0590079801281DD162
:1008D000FFE70899886920F07000886108998869A5
:1008E00040F0600088610899886940F008008861DC
:1008F0000598089948630899086A20F00200086280
:100900000899086A40F00100086265E0079802282B
:100910001DD1FFE70899886920F4E04088610899B3
:10092000886940F4C04088610899886940F4006093
:1009300088610598089988630899086A20F0200062
:1009400008620899086A40F01000086243E00798BE
:1009500003281DD1FFE70899C86920F07000C8611D
:100960000899C86940F06000C8610899C86940F0FA
:100970000800C86105980899C8630899086A20F4B6
:10098000007008620899086A40F48070086221E0EB
:10099000079804281DD1FFE70899C86920F4E040B2
:1009A000C8610899C86940F4C040C8610899C8691D
:1009B00040F40060C8610598089908640899086ABD
:1009C00020F4005008620899086A40F480500862D8
:1009D000FFE7FFE7FFE7FFE708980021C4F2010106
:1009E000884206D1FFE70899486C40F4004048640B
:1009F000FFE70899086840F0010008600CB080BD6E
:100A0000000000000000E03F80B582B08DF80700D4
:100A100000919DF90700009900F002F802B080BD36
:100A200080B586B08DF8170004919DF9170003A9D1
:100A300002AA00F0DBFC9DF9170001A96A4600F04C
:100A400007F80198049900F0C1FB06B080BD0000D2
:100A500080B588B08DF81F00069105929DF91F00A2
:100A600004A903AA00F0C2FC04980021C4F2020108
:100A7000884256D1FFE7039802900F284FD8029979
:100A8000DFE801F008104D4D4D18204D2A333C4D44
:100A90004D4D4D4506994FF0804008600599012065
:100AA00008603DE006994FF08040086005990220FB
:100AB000086035E006994FF08040086005990120F4
:100AC00008602DE0069940F20040C4F20000086082
:100AD00005990120086023E006990020C4F2010076
:100AE00008600599012008601AE006990020C4F208
:100AF0000100086005990220086011E006990020B5
:100B0000C4F20100086005990320086008E0069916
:100B10004FF08040086005990120086000E0FFE781
:100B2000A1E0049840F20041C4F2020188425BD186
:100B3000FFE70398033801460191072852D801992D
:100B4000DFE801F0040C16202A343E4806994FF0E5
:100B50008040086005990220086044E0069940F250
:100B60000040C4F2000008600599012008603AE0E6
:100B7000069940F20040C4F2000008600599022086
:100B8000086030E0069940F60000C4F200000860FA
:100B900005990120086026E0069940F60000C4F29D
:100BA000000008600599022008601CE0069940F6E4
:100BB0000000C4F20000086005990320086012E0FC
:100BC000069940F60000C4F2000008600599042070
:100BD000086008E006994FF08040086005990320FE
:100BE000086000E0FFE73DE0049840F60001C4F231
:100BF0000201884235D1FFE703980638014600918B
:100C000003282CD80099DFE801F0020C1620069981
:100C100040F20040C4F2000008600599012008601D
:100C20001EE0069940F20040C4F2000008600599F9
:100C30000220086014E0069940F20040C4F200006F
:100C400008600599032008600AE0069940F2004018
:100C5000C4F20000086005990420086000E0FFE786
:100C6000FFE7FFE7FFE708B080BD000043F6300173
:100C7000C4F20201086840F00100086070470000FB
:100C800043F63001C4F20201086840F00200086037
:100C90007047000043F63001C4F20201086840F0DA
:100CA000040008607047000043F63001C4F20201FE
:100CB000086840F0080008607047000043F6300103
:100CC000C4F20201086840F010000860704700009C
:100CD00043F63001C4F20201086840F08000086069
:100CE0007047000080B584B08DF80F009DF90F00AB
:100CF00002A901AA00F07AFB02980021C4F20201C5
:100D0000884203D1FFE7FFF7B1FFFFE7029840F603
:100D10000001C4F20201884203D1FFE7FFF7BAFFE6
:100D2000FFE7029840F20041C4F20201884203D179
:100D3000FFE7FFF7A5FFFFE7029840F60041C4F286
:100D40000201884203D1FFE7FFF7AEFFFFE70298F9
:100D500041F20001C4F20201884203D1FFE7FFF72C
:100D6000ADFFFFE7029841F60041C4F2020188425C
:100D700003D1FFE7FFF7ACFFFFE704B080BD000041
:100D800081B043F60041C4F20201086820F0070078
:100D90000860086840F00200086043F60001C4F2F1
:100DA0000201086840F001000860FFE743F6000018
:100DB000C4F2020000688007002801D4FFE7F5E7CD
:100DC00043F60001C4F20201086820F08070086058
:100DD00043F60402C4F202020092106820F480007C
:100DE0001060106810601068542363F38E10106058
:100DF0001068082363F305001060106820F4403089
:100E00001060086840F080700860FFE743F600005B
:100E1000C4F20200006800F000710020B0EB516FD6
:100E200001D0FFE7F2E743F60801C4F202010868C7
:100E300020F003000860086840F002000860FFE747
:100E400043F60800C4F20200006800F00C00082815
:100E500001D0FFE7F4E743F60801C4F20201086895
:100E600020F0F0000860086820F4E050086008688E
:100E700040F480500860086820F46040086040F248
:100E80000001C2F200014BF60050C0F201500860B0
:100E900001B0704780B500F001F880BD40F26C01F0
:100EA000C2F2000108680130086070474EF68851B0
:100EB000CEF20001086840F470000860704700003E
:100EC00080B584B040F20040C4F2000000F0ECFABB
:100ED000002847D0FFE740F26800C2F20000016836
:100EE000013101600068052835D3FFE740F20400B6
:100EF000C2F20000019000680390039800F044FEE5
:100F000041EC100B9FED181B51EC110B53EC102B07
:100F100000F04CFD41EC100B51EC100B9FED140B4D
:100F200052EC103BD20F62F3DF7141EC100B51EC2D
:100F3000100B00F023FB01460198016090ED000AC0
:100F400000200290FFF76AFB029840F26801C2F2AB
:100F500000010860FFE740F20040C4F2000000F02A
:100F600023FAFFE704B080BD000000000000F03F5E
:100F7000000000000000000081B000900099C868E7
:100F800040F00100C86001B07047000080B584B037
:100F900003900291039800F06FF80398029900F013
:100FA0000BF90398FFF7E8FF002001900398002158
:100FB000C4F20101884203D1FFE71920019050E0FB
:100FC0000398B0F1804F03D1FFE71C20019047E068
:100FD000039840F20041C4F20001884203D1FFE7C8
:100FE0001D2001903BE0039840F60001C4F200018F
:100FF000884203D1FFE71E2001902FE0039840F6BE
:101000000041C4F20001884203D1FFE73220019081
:1010100023E0039844F20001C4F20101884203D1A5
:10102000FFE71820019017E0039844F20041C4F252
:101030000101884203D1FFE7192001900BE00398DA
:1010400044F60001C4F20101884203D1FFE71A20EF
:101050000190FFE7FFE7FFE7FFE7FFE7FFE7FFE7B5
:10106000FFE79DF9040000F043F99DF90400022117
:1010700000F078F904B080BD80B582B0019001988D
:101080000021C4F20101884209D1FFE743F644017F
:10109000C4F20201086840F0010008607AE001989B
:1010A000B0F1804F09D1FFE743F64001C4F20201DD
:1010B000086840F0010008606BE0019840F20041D0
:1010C000C4F20001884209D1FFE743F64001C4F2AF
:1010D0000201086840F00200086059E0019840F6FB
:1010E0000001C4F20001884209D1FFE743F6400144
:1010F000C4F20201086840F00400086047E001986B
:1011000040F60041C4F20001884209D1FFE743F6EE
:101110004001C4F20201086840F00800086035E0B0
:10112000019844F20001C4F20101884209D1FFE7AD
:1011300043F64401C4F20201086840F480300860BC
:1011400023E0019844F20041C4F20101884209D130
:10115000FFE743F64401C4F20201086840F400309E
:10116000086011E0019844F60001C4F201018842D0
:1011700009D1FFE743F64401C4F20201086840F4D4
:1011800080200860FFE7FFE7FFE7FFE7FFE7FFE7F3
:10119000FFE7FFE7012000900198009900F016F8A2
:1011A0000199086820F0100008600199086840F073
:1011B0000100086002B080BD80B582B0019000914E
:1011C0000198009900F002F802B080BD86B0059049
:1011D000049143F60800C4F202000068800700286A
:1011E00006D5FFE74BF60050C0F2015002900EE02A
:1011F00043F60800C4F202000068002030B9FFE79F
:1012000042F20040C0F2F4000290FFE7FFE70598C9
:10121000B0F1804F08D0FFE7059840F60041C4F2D6
:101220000001884224D1FFE70298400945F6C52114
:10123000C0F67C21A0FB0110C009ADF80E00029899
:10124000BDF80E10B0FBF1F044F6D351C1F26201CB
:10125000A0FB01108009049948430190BDF80E00DD
:10126000013805998862019801380599C86225E01E
:101270000298400945F6C521C0F67C21A0FB01106B
:10128000C009ADF80E000298BDF80E10B0FBF1F0E9
:1012900044F6D351C1F26201A0FB01108009049908
:1012A0004843ADF80200BDF80E0001380599886288
:1012B000BDF8020001380599C862FFE706B0704723
:1012C00081B08DF803009DF9030000280ED4FFE7DC
:1012D0009DF9031001F01F02012090404A094EF2CF
:1012E0000011CEF2000141F82200FFE701B0704783
:1012F00081B08DF803009DF9030000280ED4FFE7AC
:101300009DF9031001F01F02012090404A094EF29E
:101310000011CEF2000141F82200FFE701B0704752
:1013200082B08DF8070000919DF9070000280AD4CB
:10133000FFE7009800019DF907104EF20042CEF23F
:10134000000288540BE0009800019DF8071001F09E
:101350000F014EF61452CEF200028854FFE702B09D
:101360007047000082B08DF8070000919DF90700DA
:1013700000280AD4FFE7009800019DF907104EF2FB
:101380000042CEF2000288540BE0009800019DF864
:10139000071001F00F014EF61452CEF200028854ED
:1013A000FFE702B07047000081B000900099086923
:1013B00020F00100086101B07047000080B584B0E2
:1013C0008DF80F009DF90F0002A901AA00F00EF898
:1013D0000199012000FA01F243F61441C4F201011F
:1013E00008681043086004B080BD000085B08DF827
:1013F0001300039102929DF8130000F00F0001907A
:101400000198029908609DF913000011009000985E
:1014100030B9FFE703990020C4F20200086041E000
:101420000098012807D1FFE7039940F20040C4F279
:101430000200086035E00098022807D1FFE7039911
:1014400040F60000C4F20200086029E0009803287A
:1014500007D1FFE7039940F60040C4F2020008609C
:101460001DE00098042807D1FFE7039941F200002E
:10147000C4F20200086011E00098072807D1FFE7D6
:10148000039941F60040C4F20200086005E00399A8
:101490000020C4F202000860FFE7FFE7FFE7FFE774
:1014A000FFE7FFE705B0704781B000900098006942
:1014B00000F0010001B0704780B584B08DF80F00D6
:1014C0009DF90F0002A901AAFFF790FF01990120E1
:1014D0008840009043F61440C4F20100006800996F
:1014E0000840401AB0FA80F0400904B080BD000006
:1014F00080B582B00020019000F002F8FFE7FEE71F
:1015000080B584B0FFF73CFC2D20009000210191B4
:10151000FEF7F0FF009801210291FFF75FF80299B2
:101520002220FEF7E7FF0098019A1146FEF70AFF16
:101530000198FFF7C9F801980299FFF74FF8019851
:101540000221FFF70DF801980299FFF75DFA40F2CA
:101550000400C2F2000090ED000A0520FFF75EF8DB
:1015600040F20040C4F2000003904FF4FA71FFF71C
:101570000DFD0398FFF700FD04B080BD21F000428F
:1015800001F00043A2F16052B2F5801F28BFD2F1F2
:101590007F6C0BD95FEA001C43EAC20242EB507039
:1015A00018BF704728BF20F001007047B2F5801FB8
:1015B000BCBF184670474FEA410C1CF5001F02D211
:1015C000084600F05FBB70B500F09CF90000008990
:1015D000FFF7F6BF4FF00040A0F580007047000015
:1015E00010B591EA030F48BF83F0004300F1E68194
:1015F000841A71EB030C05D2121943EB0C03001B88
:1016000061EB0C014FEA1154A4EB135CDFF81CE111
:101610001EEA430F18BF9EEA445F00F0748021EA7F
:10162000045123EA0E0343F48013DCF1200E32D37D
:1016300022FA0CFE10EB0E0023FA0CFE41EB0E0119
:10164000CCF1200E03FA0EFE10EB0E00CCF1200EB2
:1016500051F10001B1F5801F32D201EB045112FAB1
:101660000EF2BDE8104058BF7047401C38BF5FEA1B
:10167000420218BF7047002814BF20F0010041F15A
:1016800000014FEA410313F5001F38BF7047A1F175
:10169000C04100F085B9012A43EB0302ACF1200CF4
:1016A000DCF11F0E32BF4FF0000E23FA0CF310EBEB
:1016B000030041EB0451B4EB115FD0D0A1EB045116
:1016C00001F58011490801EB04515FEA30000ED3A7
:1016D00050F1000038BF12FA0EFE08D1BDE81040EC
:1016E000C9E7401C38BF5FEA4202CAD1C3E7BDE880
:1016F00010404FEA410313F5001F38BF7047A1F1B6
:10170000C04100F04DB99EEA445F08D011EA5E0F77
:10171000BDE8104004BF01F0004100207047BDE863
:10172000104070B500F0EEF864FBBE3E0000E0FF34
:101730004FEA1153A3F58063D3F11E03A8BFD3F181
:10174000200C08DB4FF0004242EAC12252EA50521C
:1017500032FA03F0704709420BD4102BC4BF0020AB
:10176000704703F5787CBCF1FF3F05D04FF0FF30A8
:1017700070474FF00000704770B500F0C3F800BF2D
:101780004992248000207047F0E7B0FA80F310FA05
:1017900003F10AD0C3F11D0303F580634FEA03523E
:1017A0004FEA415002EBD12170474FF000007047E3
:1017B00070B5DFF848C11CEA111E1EBF1CEA1315E4
:1017C0009EEA0C0F95EA0C0F00F06F8081EA03048B
:1017D0004EEAD47EAE4421EA4C1123EA4C1341F484
:1017E000801143F48013AEF17F7EA1FB024CA0FB7D
:1017F0000365361955EB0C05A1FB034C4CF10003B6
:10180000A0FB021C16EB0C06654153F100030942D4
:1018100018BF46F0010613F4007F0BD14FEA0331E5
:101820004FEA053041EA155140EA165034036FF093
:1018300003020AE04FEAC3214FEAC52041EA5551AD
:1018400040EA5650F4026FF0020202EB2E4201EB26
:10185000025585EACE710AD05FEA440C18BF24F025
:10186000004450F1000041F1000120EAD47040F240
:10187000FE7C624500D270BDA84214BF4FF0804488
:101880004FF04044002E08BF0024BEF1806FA8BF77
:10189000A1F1C041BDE8704080F2828001F1C041F9
:1018A00001F000414FF0000070470CEA13159EEA6A
:1018B0000C0F18BF95EA0C0F06D081EA030E4FF00B
:1018C00000000EF0004170BD00F01CF88900013EE0
:1018D00000F007B800F009B84FEA430C5FEA5C5C1F
:1018E00008D081EA030100F05BB84FEA410C5FEADF
:1018F0005C5CF6D102494FF0000070470000FF0722
:101900000000F87F0EF1020E2EF0030E5EF8046B5D
:10191000364205D4012A43EB030515F5001F12D802
:10192000012841EB010C1CF5001F0CD80ED14FEA29
:10193000D17C0CEB4C0C0CF1020C15F5001F08BF10
:101940004CEBD37C04E04FF0080C01E04FEAD37C71
:101950000CEB4C0526FA05F606F00706B6F1040C6A
:1019600006D20EEB860CBDE870404CF0010C6047CF
:10197000DFE80CF0090B02024FF00041A1F5002155
:101980004FF0000070BD19461046012851EB0104CC
:1019900018BFD4F5001484BF002001F0004170BDD1
:1019A0000808A0F500114FEA3101704710B591EA1F
:1019B000030F48BF83F000433FF51AAE841A71EB62
:1019C000030C07D28CF0004C121943EB0C03001BE4
:1019D00061EB0C014FEA1154A4EB135CDFF8A4E1B6
:1019E0001EEA430F18BF9EEA445F00F0B48021EA6C
:1019F000045123EA6E035242C3EB6E0338BF5B1EF1
:101A0000DCF1200E25D322FA0CFE10EB0E0043FA77
:101A10000CFE41EB0E01CCF1200E03FA0EFE10EB92
:101A20000E00CCF1200E51F1000129D401EB04513C
:101A300012FA0EF2BDE8104058BF7047401C1CBFA0
:101A4000B2F1004F704700280CBF491C20F0010084
:101A5000704712EB020E43EB030218BF4FF0010E6A
:101A60004EEA4202ACF1200CDCF11E0E56D943FACC
:101A70000CFE10EB0E00CCF11E0E51F1FF31D5D54E
:101A80000EF1010E12FA0EFE404141EB010101EB95
:101A9000445C5FEA5C5C10D901EB045110EBDE7032
:101AA00038BFBEF1004FBDE8104018BF7047002896
:101AB0000CBF491C20F00100704734D24FEAD42CEF
:101AC00024F4006411F500111BD0B1FA81F20B3A35
:101AD000A41AA41ED2F12003914030FA03F3194353
:101AE000904001EBCC7101EB0451002CBDE810409B
:101AF000A8BF704701F1C04101F000414FF0000064
:101B00007047B0FA80F310FA03F102D1BDE810403B
:101B10007047E41A173C4805C90AE2E701EB045193
:101B2000BDE81040704749104FEA300001EB045106
:101B3000BDE8104002E04FF0000170474A0008BFC6
:101B40000042F8D0B2F5001F28BF704701F00041F5
:101B50004FF0000070479EEA445F07D011EA5E0F25
:101B6000BDE8104004BF002100207047BDE81040D0
:101B700070B5FFF7C7FE00BF40DFF63E104683F0AA
:101B8000004170470000E0FF43004FEAD30C4FEAEA
:101B90003C0C43401FBF40070CF1605113F0FE4F57
:101BA00070471CF0006F03D10CF00041002070471B
:101BB0000CF0004343EA507040EACC0010B500F04E
:101BC0000EF800BF000000924FEA0001FFF7E8BEE8
:101BD0004FF00041A1F500214FF0000070470EF1D9
:101BE000020E2EF0030E5EF8044B244204D44FEA9A
:101BF0004102B2F17F4F11D84FEA4003B3F17F4F5A
:101C00000CD80ED14FEAD07C0CEB4C0C0CF1020C32
:101C1000B2F17F4F08BF4CEBD17C04E04FF0080CD1
:101C200001E04FEAD17C0CEB4C0324FA03F404F0FE
:101C30000704B4F1040C06D20EEB840CBDE810408E
:101C40004CF0010C6047DFE80CF0070802024FF08F
:101C50000040A0F5800010BD0846420018BFD2F138
:101C6000807288BF00F0004010BDF1EE100A4FF600
:101C7000FF71C0F2C03120EA010040F04070E1EE97
:101C8000100A7047FF2141EAD050C005704700009C
:101C9000B01C00080000002008000000FC01000843
:101CA000B81C000808000020680600001C0200089C
:081CB0000024F4000000403F95
:040000050800019955
:00000001FF
