:020000040800F2
:1000000068060020650200086D0200086F02000803
:100010007102000873020008750200080000000069
:10002000000000000000000000000000770200084F
:1000300079020008000000007B0200087D02000831
:100040007F0200087F0200087F0200087F0200088C
:100050007F0200087F0200087F0200087F0200087C
:100060007F0200087F0200087F0200087F0200086C
:100070007F0200087F0200087F0200087F0200085C
:100080007F0200087F0200087F02000800000000D5
:100090000000000000000000000000007F020008D7
:1000A0007F0200087F0200087F0200087F0200082C
:1000B0007F0200087F0200087F0200087F0200081C
:1000C0007F0200087F0200087F0200087F0200080C
:1000D0007F0200087F0200087F0200080000000085
:1000E0007F0200087F0200087F0200080000000075
:1000F0000000000000000000000000007F02000877
:10010000000000007F0200087F0200087F02000854
:1001100000000000000000000000000000000000DF
:100120007F0200087F0200087F0200087F020008AB
:100130007F02000800000000000000000000000036
:100140000000000000000000000000007F02000826
:100150007F0200087F0200087F0200087F0200087B
:100160007F0200087F02000800000000000000007D
:10017000000000000000000000000000000000007F
:10018000000000007F0200080000000000000000E6
:100190007F0200087F02000800F002F800F052F829
:1001A00014A696E8000CB244B344DA4501D100F03D
:1001B00049F8BAE80F000FA696E83000A5EB040551
:1001C00004EB0607AAEB0704A7F101074FEA151590
:1001D0004FEA3414A4F10104AC4201D300F032F828
:1001E00013F0010F18BFFB1A43F0010300F001F8F0
:1001F000DBE718473006000050060000103A24BF25
:1002000078C878C1FAD8520724BF30C830C144BF7B
:1002100004680C6070470000704700000023002451
:1002200000250026103A28BF78C1FBD8520728BF06
:1002300030C148BF0B6070471FB500F0E5FA1FBD25
:1002400010B510BD00F031F81146FFF7F5FF00F0D2
:1002500073FA00F04FF803B4FFF7F2FF03BC00F0AD
:1002600057F800000948804709480047FEE7FEE7C5
:10027000FEE7FEE7FEE7FEE7FEE7FEE7FEE7FEE756
:1002800004480549054A064B70470000410600082E
:10029000990100086800002068060020680200201C
:1002A00068020020704770477047754600F02CF8D0
:1002B000AE4605006946534620F00700854618B053
:1002C00020B5FFF7DDFFBDE820404FF000064FF0FE
:1002D00000074FF000084FF0000BAC46ACE8C00937
:1002E000ACE8C009ACE8C009ACE8C00921F00701DE
:1002F0008D46704710B50446AFF300802046BDE838
:100300001040FFF7A8BF0000004870470800002019
:1003100001491820ABBEFEE726000200704700002E
:1003200080B584B08DF80F0002919DF90F0001A9EE
:100330006A4600F0A3F99DF90F0000F001F99DF95C
:100340000F00029900F002F804B080BD80B584B0BF
:100350008DF80F0002919DF90F0001A96A4600F087
:100360008DF900984100032000FA01F20199086814
:100370009043086002980099490000FA01F201993F
:1003800008681043086004B080BD000080B584B0E8
:100390008DF80F0002919DF90F0001A96A4600F047
:1003A0006DF900984100032000FA01F20199886874
:1003B0009043886002980099490000FA01F201997F
:1003C00088681043886004B080BD000080B584B0A8
:1003D0008DF80F0002919DF90F0001A96A4600F007
:1003E0004DF90099012000FA01F201994868904303
:1003F00048600298009900FA01F201994868104398
:10040000486004B080BD000080B584B08DF80F0056
:1004100002919DF90F0001A96A4600F02FF900989A
:100420004100032000FA01F20199C8689043C860B6
:1004300002980099490000FA01F20199C868104336
:10044000C86004B080BD000080B584B08DF80F0096
:100450009DF90F0002A901AA00F010F902980069A5
:100460000199C84000F001000090009804B080BDE0
:1004700080B584B08DF80F0002919DF90F0001A99D
:100480006A4600F0FBF80099012000FA01F2019998
:100490004869904348610298012809D1FFE7029812
:1004A000009900FA01F2019948691043486108E097
:1004B0000298009900FA01F20199486910404861D8
:1004C000FFE704B080BD000043F63001C4F2020132
:1004D000086840F0010008607047000043F63001F2
:1004E000C4F20201086840F0020008607047000092
:1004F00043F63001C4F20201086840F004000860CD
:100500007047000043F63001C4F20201086840F071
:10051000080008607047000043F63001C4F2020191
:10052000086840F0100008607047000043F6300192
:10053000C4F20201086840F08000086070470000C3
:1005400080B584B08DF80F009DF90F0002A901AAB3
:1005500000F094F802980021C4F20201884203D10D
:10056000FFE7FFF7B1FFFFE7029840F60001C4F292
:100570000201884203D1FFE7FFF7BAFFFFE70298C5
:1005800040F20041C4F20201884203D1FFE7FFF7C5
:10059000A5FFFFE7029840F60041C4F2020188423D
:1005A00003D1FFE7FFF7AEFFFFE7029841F200013A
:1005B000C4F20201884203D1FFE7FFF7ADFFFFE776
:1005C000029841F60041C4F20201884203D1FFE7DC
:1005D000FFF7ACFFFFE704B080BD000043F6000169
:1005E000C4F20201086840F001000860FFE743F62A
:1005F0000000C4F2020000688007002801D4FFE771
:10060000F5E743F60801C4F20201086820F0030090
:10061000086008680860FFE743F60800C4F20200BB
:10062000006810F00C0F01D0FFE7F5E740F2000181
:10063000C2F2000142F20040C0F2F40008607047CC
:100640004EF68851CEF20001086840F47000086050
:100650007047000082B0019000200090FFE70098F2
:1006600001994FF47A725143884205DAFFE7FFE7B8
:10067000009801300090F2E702B0704785B08DF825
:100680001300039102929DF8130000F00F000190F7
:100690000198029908609DF91300001100900098DC
:1006A00030B9FFE703990020C4F20200086041E07E
:1006B0000098012807D1FFE7039940F20040C4F2F7
:1006C0000200086035E00098022807D1FFE703998F
:1006D00040F60000C4F20200086029E000980328F8
:1006E00007D1FFE7039940F60040C4F2020008601A
:1006F0001DE00098042807D1FFE7039941F20000AC
:10070000C4F20200086011E00098072807D1FFE753
:10071000039941F60040C4F20200086005E0039925
:100720000020C4F202000860FFE7FFE7FFE7FFE7F1
:10073000FFE7FFE705B0704780B586B00020009066
:10074000059000F03BF800980490012003903220BF
:100750000190FFE72D20FFF777FE02900398012814
:1007600029D1FFE7029830BBFFE70198FFF772FF3E
:100770002D20FFF769FE02900298D8B9FFE7049890
:10078000B0FA80F0400904900498012805D1FFE7F1
:1007900006200121FFF76CFE04E006200021FFF790
:1007A00067FEFFE7FFE72D20FFF74EFE08B9FFE7E2
:1007B000F9E7FFE7FFE702980390CBE780B584B045
:1007C000FFF70CFF2D20009000210391FFF7A8FDFB
:1007D000009801210191FFF717FE01990620029070
:1007E000FFF79EFD01990298FFF70EFE029803990C
:1007F000FFF7ECFD01990298FFF7C8FD02980399F5
:10080000FFF736FE04B080BDF1EE100A4FF6FF711F
:10081000C0F2C03120EA010040F04070E1EE100A61
:100820007047000048080008000000200800000091
:10083000FC010008500800080800002060060000C5
:100840001C020008000000000024F400000000006A
:040000050800019955
:00000001FF
