:020000040800F2
:1000000078060020650200086D0200086F020008F3
:100010007102000873020008750200080000000069
:10002000000000000000000000000000770200084F
:1000300079020008000000007B020008AD080008FB
:100040007F0200087F0200087F0200087F0200088C
:100050007F0200087F0200087F0200087F0200087C
:100060007F0200087F0200087F0200087F0200086C
:100070007F0200087F0200087F0200087F0200085C
:100080007F0200087F0200087F02000800000000D5
:100090000000000000000000000000007F020008D7
:1000A0007F0200087F0200087F0200087F0200082C
:1000B0007F0200087F0200087F0200087F0200081C
:1000C0007F0200087F0200087F0200087F0200080C
:1000D0007F0200087F0200087F0200080000000085
:1000E000210300087F0200087F02000800000000D2
:1000F0000000000000000000000000007F02000877
:10010000000000007F0200087F0200087F02000854
:1001100000000000000000000000000000000000DF
:100120007F0200087F0200087F0200087F020008AB
:100130007F02000800000000000000000000000036
:100140000000000000000000000000007F02000826
:100150007F0200087F0200087F0200087F0200087B
:100160007F0200087F02000800000000000000007D
:10017000000000000000000000000000000000007F
:10018000000000007F0200080000000000000000E6
:100190007F0200087F02000800F002F800F052F829
:1001A00014A696E8000CB244B344DA4501D100F03D
:1001B00049F8BAE80F000FA696E83000A5EB040551
:1001C00004EB0607AAEB0704A7F101074FEA151590
:1001D0004FEA3414A4F10104AC4201D300F032F828
:1001E00013F0010F18BFFB1A43F0010300F001F8F0
:1001F000DBE71847040B0000240B0000103A24BF73
:1002000078C878C1FAD8520724BF30C830C144BF7B
:1002100004680C6070470000704700000023002451
:1002200000250026103A28BF78C1FBD8520728BF06
:1002300030C148BF0B6070471FB500F050FD1FBDB7
:1002400010B510BD00F031F81146FFF7F5FF00F0D2
:1002500077FC00F04FF803B4FFF7F2FF03BC00F0A7
:1002600057F800000948804709480047FEE7FEE7C5
:10027000FEE7FEE7FEE7FEE7FEE7FEE7FEE7FEE756
:1002800004480549054A064B70470000210900084B
:1002900099010008780000207806002078020020EC
:1002A00078020020704770477047754600F02CF8C0
:1002B000AE4605006946534620F00700854618B053
:1002C00020B5FFF7DDFFBDE820404FF000064FF0FE
:1002D00000074FF000084FF0000BAC46ACE8C00937
:1002E000ACE8C009ACE8C009ACE8C00921F00701DE
:1002F0008D46704710B50446AFF300802046BDE838
:100300001040FFF7A8BF0000004870470800002019
:1003100001491820ABBEFEE726000200704700002E
:1003200080B52D2000F0F0FBD8B1FFE740F26C0063
:10033000C2F200000168013146F26762C6F26662ED
:1003400051FB02F39A1002EBD37202EB8202A1EB93
:1003500042010160007800F019FC2D2000F05EFBE6
:10036000FFE780BD80B58AB08DF82700089107921D
:100370009DF9270006A905AA00F068FB43F6440191
:10038000C4F20201086840F4804008600698002129
:10039000C4F20201884203D1FFE70020049032E05A
:1003A000069840F20041C4F20201884203D1FFE7FF
:1003B0000120049026E0069840F60001C4F20201F4
:1003C000884203D1FFE7022004901AE0069840F625
:1003D0000041C4F20201884203D1FFE703200490E8
:1003E0000EE0069841F20001C4F20201884203D1F6
:1003F000FFE70420049002E007200490FFE7FFE7F6
:10040000FFE7FFE7FFE7059800F00300039005987A
:1004100080080290039881000F2000FA01F3029AED
:1004200043F60801C4F2010151F82200984341F853
:1004300022000498039A920000FA02F3029A51F8FB
:100440002200184341F82200089860B9FFE7059997
:10045000012000FA01F243F60C41C4F201010868E0
:10046000104308602BE0089801280CD1FFE705999C
:10047000012000FA01F243F60841C4F201010868C4
:10048000104308601AE00898022816D1FFE7059982
:10049000012000FA01F343F60842C4F20102116898
:1004A00019431160059900FA01F243F60C41C4F2B8
:1004B0000101086810430860FFE7FFE7FFE70599BF
:1004C000012000FA01F243F60041C4F2010108687C
:1004D00010430860002001900598042804D8FFE725
:1004E0000598063001900AE00598092803D8FFE72F
:1004F0001720019002E028200190FFE7FFE79DF917
:100500000400079900F046FA9DF9040000F012FA81
:100510000AB080BD80B584B08DF80F0002919DF9BE
:100520000F0001A96A4600F091FA9DF90F0000F052
:10053000E5F89DF90F00029900F002F804B080BDC3
:1005400080B584B08DF80F0002919DF90F0001A9CC
:100550006A4600F07BFA00984100032000FA01F29D
:10056000019908689043086002980099490000FAD0
:1005700001F2019908681043086004B080BD0000D2
:1005800080B584B08DF80F0002919DF90F0001A98C
:100590006A4600F05BFA00984100032000FA01F27D
:1005A000019988689043886002980099490000FA90
:1005B00001F2019988681043886004B080BD000092
:1005C00080B584B08DF80F0002919DF90F0001A94C
:1005D0006A4600F03BFA0099012000FA01F2019905
:1005E0004868904348600298009900FA01F2019926
:1005F00048681043486004B080BD000080B584B0F6
:100600008DF80F0002919DF90F0001A96A4600F0D4
:100610001DFA00984100032000FA01F20199C86810
:100620009043C86002980099490000FA01F20199CC
:10063000C8681043C86004B080BD000080B584B0B5
:100640008DF80F0002919DF90F0001A96A4600F094
:10065000FDF90298012809D1FFE70298009900FAF4
:1006600001F2019948691043486108E000990120AE
:1006700000FA01F20199486990434861FFE704B02C
:1006800080BD000043F63001C4F20201086840F06A
:10069000010008607047000043F63001C4F2020117
:1006A000086840F0020008607047000043F630011F
:1006B000C4F20201086840F00400086070470000BE
:1006C00043F63001C4F20201086840F008000860F7
:1006D0007047000043F63001C4F20201086840F0A0
:1006E000100008607047000043F63001C4F20201B8
:1006F000086840F0800008607047000080B584B052
:100700008DF80F009DF90F0002A901AA00F09EF9D3
:1007100002980021C4F20201884203D1FFE7FFF7EB
:10072000B1FFFFE7029840F60001C4F202018842DF
:1007300003D1FFE7FFF7BAFFFFE7029840F200415D
:10074000C4F20201884203D1FFE7FFF7A5FFFFE7EC
:10075000029840F60041C4F20201884203D1FFE74B
:10076000FFF7AEFFFFE7029841F20001C4F2020179
:10077000884203D1FFE7FFF7ADFFFFE7029841F69C
:100780000041C4F20201884203D1FFE7FFF7ACFF4A
:10079000FFE704B080BD000081B043F60041C4F221
:1007A0000201086820F007000860086840F00200B5
:1007B000086043F60001C4F20201086840F001003D
:1007C0000860FFE743F60000C4F2020000688007FB
:1007D000002801D4FFE7F5E743F60001C4F2020167
:1007E000086820F08070086043F60402C4F2020238
:1007F0000092106820F4800010601068106010688B
:10080000542363F38E1010601068082363F305000F
:100810001060106820F440301060086840F080706C
:100820000860FFE743F60000C4F20200006800F031
:1008300000710020B0EB516F01D0FFE7F2E743F603
:100840000801C4F20201086820F00300086008688B
:1008500040F002000860FFE743F60800C4F202001F
:10086000006800F00C00082801D0FFE7F4E743F629
:100870000801C4F20201086820F0F000086008686E
:1008800020F4E0500860086840F480500860086870
:1008900020F46040086040F20001C2F200014BF613
:1008A0000050C0F20150086001B0704780B500F000
:1008B00001F880BD40F27001C2F200010868013009
:1008C0000860704780B582B04EF21001CEF2000190
:1008D000002008600A6842F004020A604EF2140325
:1008E000CEF2000344F61F02C0F201021A604EF27B
:1008F0001802CEF200021060086840F002000860A2
:10090000086840F0010008604FF0FF3001901021AE
:1009100000F062F8019800F025F802B080BD0000F8
:100920004EF68851CEF20001086840F4700008606D
:100930007047000081B08DF803009DF90300002886
:100940000ED4FFE79DF9031001F01F020120904033
:100950004A094EF20011CEF2000141F82200FFE7F1
:1009600001B0704781B08DF803009DF903000028A5
:100970000ED4FFE79DF9031001F01F020120904003
:100980004A094EF20011CEF2000141F82200FFE7C1
:1009900001B0704782B08DF8070000919DF9070003
:1009A00000280AD4FFE7009800019DF907104EF2D5
:1009B0000042CEF2000288540BE0009800019DF83E
:1009C000071001F00F014EF61452CEF200028854C7
:1009D000FFE702B07047000082B08DF80700009179
:1009E0009DF9070000280AD4FFE7009800019DF94F
:1009F00007104EF20042CEF2000288540BE000983D
:100A000000019DF8071001F00F014EF61452CEF2CE
:100A100000028854FFE702B07047000080B584B040
:100A20008DF80F009DF90F0002A901AA00F00EF841
:100A30000199012000FA01F243F61441C4F20101C8
:100A400008681043086004B080BD000085B08DF8D0
:100A50001300039102929DF8130000F00F00019023
:100A60000198029908609DF9130000110090009808
:100A700030B9FFE703990020C4F20200086041E0AA
:100A80000098012807D1FFE7039940F20040C4F223
:100A90000200086035E00098022807D1FFE70399BB
:100AA00040F60000C4F20200086029E00098032824
:100AB00007D1FFE7039940F60040C4F20200086046
:100AC0001DE00098042807D1FFE7039941F20000D8
:100AD000C4F20200086011E00098072807D1FFE780
:100AE000039941F60040C4F20200086005E0039952
:100AF0000020C4F202000860FFE7FFE7FFE7FFE71E
:100B0000FFE7FFE705B0704780B584B08DF80F00B0
:100B10009DF90F0002A901AAFFF798FF0199012092
:100B20008840009043F61440C4F201000068009928
:100B30000840401AB0FA80F0400904B080BD0000BF
:100B400080B582B00020019000F002F8FFE7FEE7D8
:100B500080B582B0FFF720FEFFF7B4FE2D20009095
:100B600000210191FFF7D6FC00980121FFF746FD17
:100B7000072016212722092300F052F80098019A35
:100B80001146FFF7EFFB02B080BD000080B586B0D4
:100B90008DF8170040F60810ADF8140040F204502C
:100BA000C0F20670049040F20010C0F202300390D0
:100BB00040F26B00C2F2000000788DF8080040F2AD
:100BC0006A00C2F2000000788DF8090040F2690066
:100BD000C2F2000000788DF80A0040F26800C2F20C
:100BE000000000788DF80B0000200190FFE70198CD
:100BF000032813DCFFE7019A02A8801A90F903008A
:100C00009DF8173003A9C95CD14001F00101FFF73D
:100C100015FDFFE7019801300190E8E706B080BDBF
:100C200080B586B08DF817008DF816108DF8152058
:100C30008DF814309DF817008DF810009DF81600FF
:100C40008DF811009DF815008DF812009DF8140024
:100C50008DF813009DF8170040F26B01C2F20001FD
:100C600008709DF8160040F26A01C2F20001087097
:100C70009DF8150040F26901C2F2000108709DF86C
:100C8000140040F26801C2F20001087000200390D5
:100C9000FFE70398032820DCFFE7039904A80190ED
:100CA000405601210291FFF735FC01980399405607
:100CB00000210091FFF7A2FC00990198039A805649
:100CC000FFF77EFC01980299039A8056FFF758FCC3
:100CD000FFE7039801300390DBE706B080BDF1EE3B
:100CE000100A4FF6FF71C0F2C03120EA010040F057
:100CF0004070E1EE100A7047180D00080000002057
:100D000008000000FC010008200D00080800002079
:100D1000700600001C0200080024F400000000001F
:040000050800019955
:00000001FF
