:020000040800F2
:100000009806002011030008190300081B030008CC
:100010001D0300081F030008210300080000000062
:1000200000000000000000000000000023030008A2
:10003000250300080000000027030008751E0008C3
:100040002B0300082B0300082B0300082B030008D8
:100050002B0300082B0300082B0300082B030008C8
:100060002B0300082B0300082B0300082B030008B8
:100070002B0300082B0300082B0300082B030008A8
:100080002B0300082B0300082B03000800000000CE
:100090000000000000000000000000002B0300082A
:1000A0002B0300082B0300082B0300082B03000878
:1000B000A11E00082B0300082B0300082B030008D7
:1000C0002B0300082B0300082B0300082B03000858
:1000D0002B0300082124000851270008000000001D
:1000E0002B0300082B0300082B030008000000006E
:1000F0000000000000000000000000002B030008CA
:10010000000000002B0300082B0300082B0300084D
:1001100000000000000000000000000000000000DF
:100120002B0300082B0300082B0300082B030008F7
:100130002B03000800000000000000000000000089
:100140000000000000000000000000002B03000879
:100150002B0300082B0300082B0300082B030008C7
:100160002B0300082B030008000000000000000023
:10017000000000000000000000000000000000007F
:10018000000000002B030008000000000000000039
:100190002B0300082B03000800F002F800F0A8F879
:1001A00014A696E8000CB244B344DA4501D100F03D
:1001B0009FF8BAE80F000FA696E83000A5EB0405FB
:1001C00004EB0607AAEB0704A7F101074FEA151590
:1001D0004FEA3414A4F10104AC4201D300F088F8D2
:1001E00013F0010F18BFFB1A43F0010300F001F8F0
:1001F000DBE7184798420000B8420000103A24BFDD
:1002000078C878C1FAD8520724BF30C830C144BF7B
:1002100004680C6070470000704700000023002451
:1002200000250026103A28BF78C1FBD8520728BF06
:1002300030C148BF0B6070476E2900F037817029CC
:1002400000F06D82662904F03080652904F02D806D
:10025000672904F02A80612904F0298003681B0AB9
:1002600028BF41F08001692900F0E480642900F092
:10027000E180752900F0DE806F2900F0FB8178298C
:1002800000F03982E92900F09581E42900F092819B
:10029000F52900F08F81EF2900F0F881F82900F0AE
:1002A00038820368DB0928BF41F08001632900F030
:1002B0005187732900F05687E32900F06187F329FD
:1002C00000F06687002070471FB503F0DCFF00F0E8
:1002D000B9FF04000020002103F014FA401C606004
:1002E0000020002103F0F8F9E0601FBD10B510BD3B
:1002F00000F07AFF1146FFF7E7FF02F023FD01F05F
:1003000057F803B4FFF7F2FF03BC01F09FF80000B9
:100310000948804709480047FEE7FEE7FEE7FEE799
:10032000FEE7FEE7FEE7FEE7FEE7FEE704480549D5
:10033000054A064B704700008D1E00089901000811
:1003400098000020980600209802002098020020C3
:100350000FB4044910B503AA029800F0BBF810BC12
:100360005DF814FB7800002070477047704770B547
:10037000044685690068C10601D5302600E02026C4
:10038000C00707D070BDD4E9012130469047206AEC
:10039000401C20626D1EF6D570BD70B5044685699F
:1003A0000078C00707D170BDD4E901212020904713
:1003B000206A401C20626D1EF6D570BD09684A0592
:1003C00001D540B27047C905FCD500B27047096835
:1003D0004A0501D5C0B27047C905FCD580B2704747
:1003E00070B50C460546012A05D02878800600D550
:1003F000EA69002302E0012305E05B1C934202D27C
:10040000E05C0028F9D1A869E618C01AA861286A3A
:10041000184428622846FFF7AAFF04E0D5E9012125
:1004200014F8010B9047B442F8D32846FFF7B5FF04
:1004300070BD00002DE9F0410646002410687529C2
:10044000314616A510D0FFF7B9FF002802DA404266
:1004500013A507E031688A0701D512A502E0490714
:1004600004D511A5012401E0FFF7B1FF00210A2204
:1004700006F1240709E0B0FBF2FCB0FBF2F302FB4B
:100480001C00303078541846491C0028F3D123460C
:100490002A463046BDE8F04100F055BA00000000A1
:1004A0002D0000002B0000002000000011680268F1
:1004B000006A530501D508700AE0D30501D508800C
:1004C00006E0130603D5C217C1E9000200E0086088
:1004D00001207047074B70B50D467B4400F01DFEB0
:1004E0000446284600F058FE10B14FF0FF3070BDB2
:1004F000204670BD1F2800002DE9FF5F15468A4683
:100500000446DFF8AC80F8440027D8E900103E46E6
:10051000CDE9001010E03AF816106A4602A800F083
:100520003FFE411C07D02178890603D5E2693918BE
:1005300091420DD80744761C2078800602D5E069E8
:10054000B84205DDAE42E6DB3AF816000028E2D1FB
:10055000A069C01BA0612046FFF709FFD8E9001081
:10056000CDE90010002017E03AF818106A4602A8FA
:1005700000F016FEB0F1FF3F81460BD000250DF1D3
:10058000080B05E0D4E901211BF8050090476D1C1C
:100590004D45F7D308F10100B0428046E4DB206A04
:1005A000384420622046FFF7F8FEBDE8FF9F0000B8
:1005B000AA3D00002DE9F0418046D21D22F007023D
:1005C0000025D2E90002F52915A614D0011E72F10A
:1005D000000106DA0023D0EB030063EB020211A650
:1005E00008E0D8F800108B0701D50FA602E04907F4
:1005F00001D50EA601251146002408F1240704E0C8
:1006000000F05CF930323A55641C50EA0102F7D12F
:100610002B46324621464046BDE8F04100F093B9F2
:10062000000000002D0000002B0000002000000052
:1006300030B4002100F1240408E002F00705D208DC
:10064000303542EA4372DB086554491C52EA03051F
:10065000F3D10468002310A2250708D504F0200474
:100660000C4304D0C46901230CA2641EC46130BCD5
:1006700000F069B910B5044621461068FFF7A7FEDF
:1006800002462046BDE810400023D1E7D21D22F0EB
:100690000701D1E90023CBE7000000003000000093
:1006A000F0B40D460188090502D5214C7C4402E0D6
:1006B0001F4C7C440E34002100F1240608E002F0B7
:1006C0000F071209E75D42EA03721B097754491CC0
:1006D00052EA0307F3D102780023120704D5702DE4
:1006E00006D009B1022311342246F0BC00F02BB928
:1006F00001231034F8E770B504460D462146106812
:10070000FFF765FE024629462046BDE870400023FB
:10071000C6E7D21D22F00703D3E90023C0E7036830
:10072000126843F0200303600823C3610023B7E786
:100730000C3C00002DE9F05F894604464FF0000AAA
:10074000DFF874B1FB44C0F820A02046E168884778
:10075000002874D0252806D0D4E901219047206ACA
:10076000401C2062F1E700265F462046E16888478A
:100770002028054607DB312D05D2781910F8200C0A
:1007800008B10643F1E7B00701D526F00406C4F826
:100790001CA00027C4F818A02A2D09D0284602F072
:1007A00093FF38B304EB8708303DC8F8185019E0C0
:1007B00059F8041B204604EB87029161E1688847E1
:1007C000012F054618D1E069002820DA26F020061E
:1007D0001DE0D8F8180000EB800005EB4000303831
:1007E000C8F818002046E1688847054602F06CFF0B
:1007F0000028EED1012F0AD02E2D08D12046E16825
:1008000088477F1C0546022F46F02006C4DBA069FE
:10081000002803DA404246F00106A061F00701D04B
:1008200026F010066C2D0BD0682D09D04C2D39D038
:100830006A2D35D0742D35D07A2D33D016E038E0BE
:10084000E1682F4620468847B842054609D16C2FFB
:1008500026D04FF48060E16806432046884705466D
:1008600004E06C2F1AD04FF4807006430DB3A5F14D
:100870004100192802D8203546F400664A46294628
:10088000204626604E46FFF7D7FC80B101280BD0EA
:10089000F61D26F0070000F1080956E74020E4E7BE
:1008A0008020D8E70020D6E706F104094DE7284666
:1008B00052E7206ABDE8F09F9C3B000030B5B0F1E4
:1008C0000A0271F100034FEA900E4EEA817EB0EB0E
:1008D0000E0061EB91014FEA101E4EEA017E10EB13
:1008E0000E0041EB11114FEA102E4EEA016E10EB93
:1008F0000E0041EB11214FEA104E4EEA014E10EB73
:100900000E0041EB1141401841F100014FEAD000C7
:1009100040EA41704FEAD1014FEA810444EA907401
:1009200010EB800544EB01046D1944EB0404521BE9
:10093000A3414FF0000348BF0A3200D530BD401C30
:1009400041F1000130BD2DE9F0470D469946924630
:10095000044600F124080168880604D5E06921F006
:100960001001216000E00120A84201DD471B00E0EA
:100970000027A1697A1902EB0900081AA061207802
:10098000C00602D42046FFF7F2FC002608E0D4E9B6
:1009900001211AF806009047206A401C761C20624C
:1009A0004E45F4DB2078C0060AD52046FFF7DFFC71
:1009B00006E0D4E9012130209047206A401C2062E3
:1009C000381EA7F10107F4DC07E0D4E9012118F88B
:1009D00005009047206A401C2062281EA5F10105F1
:1009E000F3DC2046FFF7D9FC2078000602D5022070
:1009F000BDE8F0870120FBE72DE9FF4F0C461E46BE
:100A00004FF0FF378BB0D2E90001DDF860800A902B
:100A10008A46C1F30A5505B93D46002108464FF004
:100A20000000BAF1000F00F4400005DA00EB80008E
:100A30004FF4400101EA50004FEA9059B9F1010F1B
:100A400000DDB9460A9850EA4A000ED044F610502C
:100A5000A5F2FF3545432F14B8F1000F1ED07542A3
:100A6000291E1EDDC9F100021CE0B8F1010F4FF094
:100A7000000001D0302103E0F24305E02154401C86
:100A8000B042FBDB30460022002121540B99C1F813
:100A90000880C1E900200FB0BDE8F08FBD1B6D1CC0
:100AA000DEE74A4600DA694206A800F00FFC06AB12
:100AB00093E8070003AB83E8070050460A9902F069
:100AC000B2F98DE80700A0F500501F380090039898
:100AD000002D0ADD42F21F014A460844002303A903
:100AE0000390684602F01CFC09E0A0F500504A465D
:100AF0001F38002303A90390684602F026FC8DE806
:100B000007000004000C03D04FF0FF30410800E064
:100B10001046B8F1000F03D00022009215461EE0E7
:100B2000751E05D4FFF7CAFE303262556D1EF9D529
:100B3000B3460122084302D000227F1C04E0207843
:100B4000302801D100227F1E002A099784D01DE0A1
:100B5000112D07DAFFF7B2FE303262556D1C50EAF4
:100B60000102F5D1084302D00098C8B10EE000217F
:100B7000681E05E0235C625C63542254401E491CDD
:100B80008142F7DBAB46A81B401E0990002004F809
:100B90000B000B98099AC0F80880C0E9002B7AE78F
:100BA00011264FF0000857E72DE9F04F884604461C
:100BB000D21D22F0070191B0D1E90001CDE90A016F
:100BC00002F0FAFC02460B98C00F01D02D2007E07E
:100BD0002068810701D52B2002E0202101EAC00016
:100BE000032A099001D0072A05DB03464146204627
:100BF00000F02CFB0BE12078800601D5E06900E0D5
:100C00000620B8F1650F814606D0B8F1660F18D0FE
:100C1000B8F1670F70D131E00020B9F1110F0090E9
:100C200001DB112301E009F101030AAA01A90CA8C3
:100C3000FFF7E2FEDDE90C70002609F101058346AD
:100C400047E001204B4600904FF000470AAA01A957
:100C50000CA8FFF7D1FEDDE90DB00C995D4600262A
:100C600010B909F101000D18B9EB050003D4C0F16A
:100C7000FF3609F10105A5EB09002BE0B9F1010FE1
:100C800001DA4FF001090020B9F1110F0090484638
:100C900001DD112300E003460AAA01A90CA8FFF711
:100CA000ABFEDDE90C704D46002683462078000738
:100CB0000AD4AB4500DA5D4601A8012D04DD4119D7
:100CC00011F8011C302907D04F4502DA17F1040F43
:100CD00004DA012082460FE06D1EEEE7002F02DCF1
:100CE000ED1B3E4403E0781CA84200DD7D1CB81BD0
:100CF00000F1010A4FF000472078000703D4AA450D
:100D000001DB4FF0FF3A0021B7F1004F0DF143082E
:100D10008DF8431024D002202B23002F01DA7F42CC
:100D20002D230A21021EA0F1010000DC5FB197FB18
:100D3000F1FC97FBF1F201FB1C7C17460CF1300C27
:100D400008F801CDEEE7A8F101000370218809053C
:100D500001D5452100E06521A0F1010800F8011C42
:100D600009980FA9A1EB0807FF1D00B10120411947
:100D700001EBEA70A1693844081A401EA06120788E
:100D8000C00602D42046FFF7F2FA099828B1D4E948
:100D900001219047206A401C20622078C00622D59D
:100DA0002046FFF7E4FA1EE0002E04DBB34502DD27
:100DB00001A8805D00E03020D4E901219047206A3D
:100DC000401C2062761CAAF101005FEA000A0AD1E9
:100DD00000F038FAC0680168405CD4E9012190470E
:100DE000206A401C2062281EA5F10105DCDC07E01A
:100DF000D4E9012118F8010B9047206A401C2062B9
:100E0000381EA7F10107F3DC2046FFF7C6FA0320DE
:100E100011B041E62DE9F04F04460D46D21D22F0F7
:100E2000070089B0D0E900974846394602F0C4FB74
:100E30000246F80F01D02D2307E02068810701D575
:100E40002B2302E0202101EAC0038DF820300BB1F2
:100E5000012000E00020032A824601D0072A04DB9B
:100E60002946204600F0F2F93FE12078800601D4BF
:100E70000D2500E0E569C7F30A560D2D49DA00217A
:100E80004FEA175B08464FF00000002F00F44000C7
:100E900007DA00EB80004FF4400100EBD07001EA6C
:100EA00060008115012901DD4FF0FF3100224FEA7A
:100EB000850CBCF1180F06D31346ACF118004FF0A7
:100EC0008052C24003E04FF4801323FA0CF30CF17C
:100ED0000C0CBCF1200F04D3ACF1200C09FA0CF07F
:100EE00001E007FA0CF000294FF0004801DD18B9C5
:100EF0000FE00ED140450CD319EB02095F4121B937
:100F0000404502D19F4329EA0209BBEB175F00D09D
:100F1000761C2088000502D57B48784402E07A4898
:100F20007844193808AA302302F80A30037C0AF101
:100F30000101002E0AF1020A53546A4602DC4FF006
:100F4000300101E04FF031014FF001088DF8001041
:100F500002D0A6F2FF3603E059EA470100D06B4EFB
:100F6000002D02DC2178090704D54FF002082E215C
:100F70008DF80110C44600210BE0C7F303433F0185
:100F8000C35C491C6D1E02F80830052908F10108F0
:100F900001DA002DF1DC00210CE000EB1973491C93
:100FA0001B786D1E082902F808304FEA091908F16C
:100FB000010801DA002DF0DC21688B0602D516E06D
:100FC000A8F10108E04505DD02EB080313F8013C38
:100FD000302BF5D0B8F1000F09DD02EB080313F850
:100FE000013C2E2B03D1090701D4A8F10108002DE3
:100FF00005DD3E2102F808106D1E08F10108407C55
:10100000002E02F8080008F1010804DA2D207642CB
:1010100002F8080002E02B2002F808000A214FF431
:101020007A70864208F101080BDB96FBF0F330334F
:1010300002F8083096FBF0F308F1010800FB136694
:1010400001E0642E0CDB642096FBF0F3303302F8F1
:10105000083096FBF0F308F1010800FB136601E08D
:101060000A2E06DB96FBF1F0303002F8080008F19A
:10107000010896FBF1F001FB1060303002F8080027
:10108000A16908F1010808EB050202EB0A00081A41
:10109000A0612078C00602D42046FFF768F9216AD3
:1010A00008AE01EB0A00206204E0D4E9012116F841
:1010B000010B9047BAF1010AF7D22078C00602D599
:1010C0002046FFF754F96E4609E016F8010B3E285A
:1010D0000FD0D4E901219047206A401C2062B8F16A
:1010E0000108F2D22046FFF758F909B00320BDE805
:1010F000F08F206A2844206203E0D4E901213020E7
:1011000090476D1EEBD3F8E7EA33000002FCFFFFC7
:1011100001694A1C02610878704700B58FB0CDE9BB
:1011200001310021059105497944CDE903101146AB
:101130006846FFF7FFFA0FB000BD0000E5FFFFFFB4
:1011400010B5436913B1AFF3008001E0FFF748F930
:10115000012010BD127800F124010A7000224A70AB
:101160000122EDE711684FF0FF32E9E710B543695E
:1011700013B1AFF3008001E0FFF7BEF9012010BD0D
:10118000128800F1240182840022C2840122EDE74A
:1011900011684FF0FF32E9E7007B00F080007047F4
:1011A0002DE9F04116460C46054600F043F8036869
:1011B00093F80101012807D0FF2C12D8185D80B1E7
:1011C00001202C70BDE8F081D3F80701324621469A
:1011D00003F20713C7182846BC46BDE8F0410023B8
:1011E00060474FF0FF30EDE7754600F0EBF8AE4694
:1011F00005006946534620F00700854618B020B523
:10120000FFF794F8BDE820404FF000064FF00007CC
:101210004FF000084FF0000BAC46ACE8C009ACE85A
:10122000C009ACE8C009ACE8C00921F007018D464F
:101230007047000010B500F005F8001D10BD00BF9C
:10124000C524000000487047380000202DE9F04117
:101250001F46044603260168072A01F4006004DBE8
:1012600008B116A505E016A503E008B115A500E034
:1012700015A521F010002060A069C01EA0610FB16B
:10128000401EA0612046FFF772F84FB1D4E901215A
:1012900038469047206A401C2062C01C206206E04D
:1012A000206AFAE7D4E9012115F8010B9047761E70
:1012B000F8D22046FFF771F8BDE8F0814E414E00AC
:1012C0006E616E00494E4600696E66002DE9F0477A
:1012D000814616468AB0354878440DC88DE80D0021
:1012E00032487844801C03AC0DC884E80D0041F6F8
:1012F0009B300844372190FBF1F290FBF1F5A5F10A
:10130000800501FB12041B3C02D56442012000E071
:101310000020DFF898A080460027FA44AAF1BE0A10
:101320000EE0E0070AD03246684607EB470101238A
:101330000AEB810102F009F88DE8070064107F1CB8
:10134000002CEED1194F7F44AE3F19E0E80715D0CD
:1013500007EB04100DF1180A90E80E008AE80E0061
:10136000C068F04201D1981908903246012306A9BD
:1013700003A801F0EAFF03AB83E807006D10641CCB
:10138000002DE3D14FF0010332466946B8F1000F5A
:1013900003A802D001F0C4FF01E001F0D6FFC9E9C3
:1013A0000001C9F808200AB0BDE8F087BC30000091
:1013B00010B50446AFF300802046BDE81040FEF7AC
:1013C000A0BF000000487047180000200000000087
:1013D00030B44FF0013C50F8042B51F8043BCCFAE8
:1013E00052F4D51A20D1FCB950F8042B51F8043B23
:1013F000CCFA52F4D51A17D1B4B950F8042B51F8DD
:10140000043BCCFA52F4D51A0ED16CB950F8042B27
:1014100051F8043BCCFA52F4D51A05D1002CDAD09D
:1014200030BC4FF00000704729BAB1FA81F111F0D9
:101430001801D1F120008440F2D1CA40CB4012F013
:10144000FF0213F0FF0330BCD01A70470149182087
:10145000ABBEFEE7260002007047000080B584B0F6
:101460008DF80F0002919DF90F0001A96A4601F065
:10147000E7FB9DF90F0000F025FC9DF90F00029994
:1014800000F002F804B080BD80B584B08DF80F0084
:1014900002919DF90F0001A96A4601F0D1FB009865
:1014A0004100032000FA01F20199086890430860A6
:1014B00002980099490000FA01F201990868104366
:1014C000086004B080BD000080B584B08DF80F00C6
:1014D00002919DF90F0001A96A4601F0B1FB009845
:1014E0004100032000FA01F2019988689043886066
:1014F00002980099490000FA01F2019988681043A6
:10150000886004B080BD000080B584B08DF80F0005
:1015100002919DF90F0001A96A4601F091FB009923
:10152000012000FA01F2019948689043486002984E
:10153000009900FA01F2019948681043486004B02C
:1015400080BD000080B584B08DF80F0002919DF938
:101550000F0001A96A4601F073FB009841000320C7
:1015600000FA01F20199C8689043C8600298009996
:10157000490000FA01F20199C8681043C86004B03C
:1015800080BD000080B584B08DF80F009DF90F007C
:1015900002A901AA01F054FB029800690199C84010
:1015A00000F001000090009804B080BD80B584B0C8
:1015B0008DF80F0002919DF90F0001A96A4601F014
:1015C0003FFB0298012809D1FFE70298009900FA31
:1015D00001F2019948691043486108E0009901202F
:1015E00000FA01F20199486990434861FFE704B0AD
:1015F00080BD000080B588B08DF81F008DED060A13
:101600009DF91F0005A904AA01F01AFB9DF91F000E
:1016100003A902AA00F00CFA0398C06A019001988D
:10162000013000EE100AB8EE400A9DED061A20EED9
:10163000010ABCEEC00A8DED000A9DED060AB5EE6A
:10164000400AF1EE10FA03DCFFE7002000900FE003
:101650009DED060AB7EE001AB4EE410AF1EE10FA5B
:1016600005DBFFE70398C06A01300090FFE7FFE762
:101670000298012804D1FFE70098039948631AE013
:101680000298022804D1FFE700980399886311E0CB
:101690000298032804D1FFE700980399C86308E083
:1016A0000298042804D1FFE7009803990864FFE733
:1016B000FFE7FFE7FFE708B080BD00000000000083
:1016C00080B58CB08DF82F009DF92F000AA909AACA
:1016D00001F0B6FA9DF92F0008A907AA00F0A8F9B1
:1016E0009DF92F000221FFF7B9FE9DF92F0000217F
:1016F0000491FFF709FF04999DF92F00FFF722FFDE
:101700009DF92F000321FFF7DFFE0A980021C4F2A4
:101710000201884229D1FFE7099803900F2822D8B7
:101720000399DFE801F0080B2020200E1120141788
:101730001A202020201D0120069015E0012006908F
:1017400012E0012006900FE0022006900CE001203C
:10175000069009E00120069006E00120069003E0D3
:101760000120069000E0FFE751E00A9840F20041B6
:10177000C4F20201884227D1FFE7099803380146E5
:10178000029107281ED80299DFE801F004070A0D2C
:10179000101316190120069015E00220069012E0A1
:1017A000022006900FE0022006900CE00220069036
:1017B00009E00220069006E00220069003E00120E6
:1017C000069000E0FFE721E00A9840F60001C4F22D
:1017D0000201884219D1FFE70998063801460191B4
:1017E000032810D80199DFE801F00205080B022058
:1017F000069009E00220069006E00220069003E031
:101800000220069000E0FFE7FFE7FFE7FFE7099807
:10181000072813D8FFE7099881000F2000FA01F28A
:101820000A99086A9043086206980999890000FAA3
:1018300001F20A99086A104308621BE009980F2810
:1018400017D8FFE709986FF01F0101EB80020F2006
:1018500000FA02F30A9A506A984350620698099A6D
:1018600001EB820100FA01F20A99486A10434862CA
:10187000FFE7FFE7089800F091FB0898012100F0CE
:101880002DFC0899086820F0010008600899086894
:1018900020F0100008600898C06A013002F0B7F923
:1018A00041EC100B9FED541B53EC112B51EC100B22
:1018B00002F0FCF941EC100B51EC100B02F07AF93C
:1018C0000590079801281DD1FFE70899886920F045
:1018D000700088610899886940F060008861089903
:1018E000886940F00800886105980899486308995C
:1018F000086A20F0020008620899086A40F00100B6
:10190000086265E0079802281DD1FFE708998869F9
:1019100020F4E04088610899886940F4C0408861FB
:101920000899886940F4006088610598089988637F
:101930000899086A20F0200008620899086A40F0B7
:101940001000086243E0079803281DD1FFE70899BB
:10195000C86920F07000C8610899C86940F060004B
:10196000C8610899C86940F00800C86105980899DD
:10197000C8630899086A20F4007008620899086A28
:1019800040F48070086221E0079804281DD1FFE729
:101990000899C86920F4E040C8610899C86940F412
:1019A000C040C8610899C86940F40060C8610598E2
:1019B000089908640899086A20F400500862089998
:1019C000086A40F480500862FFE7FFE7FFE7FFE79F
:1019D00008980021C4F20101884206D1FFE7089966
:1019E000486C40F400404864FFE70899086840F0FC
:1019F000010008600CB080BD000000000000E03F66
:101A000080B586B08DF8170004919DF9170003A9E1
:101A100002AA01F015F99DF9170001A96A4600F024
:101A200007F80198049900F0DDFB06B080BD0000C6
:101A300080B588B08DF81F00069105929DF91F00B2
:101A400004A903AA01F0FCF804980021C4F20201E1
:101A5000884256D1FFE7039802900F284FD8029989
:101A6000DFE801F008104D4D4D18204D2A333C4D54
:101A70004D4D4D4506994FF0804008600599012075
:101A800008603DE006994FF080400860059902200B
:101A9000086035E006994FF0804008600599012004
:101AA00008602DE0069940F20040C4F20000086092
:101AB00005990120086023E006990020C4F2010086
:101AC00008600599012008601AE006990020C4F218
:101AD0000100086005990220086011E006990020C5
:101AE000C4F20100086005990320086008E0069927
:101AF0004FF08040086005990120086000E0FFE792
:101B0000A1E0049840F20041C4F2020188425BD196
:101B1000FFE70398033801460191072852D801993D
:101B2000DFE801F0040C16202A343E4806994FF0F5
:101B30008040086005990220086044E0069940F260
:101B40000040C4F2000008600599012008603AE0F6
:101B5000069940F20040C4F2000008600599022096
:101B6000086030E0069940F60000C4F2000008600A
:101B700005990120086026E0069940F60000C4F2AD
:101B8000000008600599022008601CE0069940F6F4
:101B90000000C4F20000086005990320086012E00C
:101BA000069940F60000C4F2000008600599042080
:101BB000086008E006994FF080400860059903200E
:101BC000086000E0FFE73DE0049840F60001C4F241
:101BD0000201884235D1FFE703980638014600919B
:101BE00003282CD80099DFE801F0020C1620069992
:101BF00040F20040C4F2000008600599012008602E
:101C00001EE0069940F20040C4F200000860059909
:101C10000220086014E0069940F20040C4F200007F
:101C200008600599032008600AE0069940F2004028
:101C3000C4F20000086005990420086000E0FFE796
:101C4000FFE7FFE7FFE708B080BD000043F6300183
:101C5000C4F20201086840F001000860704700000B
:101C600043F63001C4F20201086840F00200086047
:101C70007047000043F63001C4F20201086840F0EA
:101C8000040008607047000043F63001C4F202010E
:101C9000086840F0080008607047000043F6300113
:101CA000C4F20201086840F01000086070470000AC
:101CB00043F63001C4F20201086840F08000086079
:101CC0007047000080B584B08DF80F009DF90F00BB
:101CD00002A901AA00F0B4FF02980021C4F2020197
:101CE000884203D1FFE7FFF7B1FFFFE7029840F614
:101CF0000001C4F20201884203D1FFE7FFF7BAFFF7
:101D0000FFE7029840F20041C4F20201884203D189
:101D1000FFE7FFF7A5FFFFE7029840F60041C4F296
:101D20000201884203D1FFE7FFF7AEFFFFE7029809
:101D300041F20001C4F20201884203D1FFE7FFF73C
:101D4000ADFFFFE7029841F60041C4F2020188426C
:101D500003D1FFE7FFF7ACFFFFE704B080BD000051
:101D600081B043F60041C4F20201086820F0070088
:101D70000860086840F00200086043F60001C4F201
:101D80000201086840F001000860FFE743F6000028
:101D9000C4F2020000688007002801D4FFE7F5E7DD
:101DA00043F60001C4F20201086820F08070086068
:101DB00043F60402C4F202020092106820F480008C
:101DC0001060106810601068542363F38E10106068
:101DD0001068082363F305001060106820F4403099
:101DE0001060086840F080700860FFE743F600006C
:101DF000C4F20200006800F000710020B0EB516FE7
:101E000001D0FFE7F2E743F60801C4F202010868D7
:101E100020F003000860086840F002000860FFE757
:101E200043F60800C4F20200006800F00C00082825
:101E300001D0FFE7F4E743F60801C4F202010868A5
:101E400020F0F0000860086820F4E050086008689E
:101E500040F480500860086820F46040086040F258
:101E60000001C2F200014BF60050C0F201500860C0
:101E700001B0704780B500F001F880BD40F29001DC
:101E8000C2F2000108680130086070474EF68851C0
:101E9000CEF20001086840F470000860704700004E
:101EA00080B582B04FF0804000F03CFF002862D047
:101EB000FFE740F28800C2F2000090ED000AB8EEA1
:101EC000400A40F20C00C2F2000090ED001A30EE21
:101ED000410A10EE100A02F065F941EC100B51ECCA
:101EE000100B9FED270B52EC103BD20F019262F3C7
:101EF000DF7141EC100B51EC100B01F019FC0146A5
:101F000040F20400C2F20000016090ED000A0020DF
:101F1000FFF770FB40F28C00C2F2000090ED000A67
:101F2000B8EE400A40F21000C2F2000090ED001A34
:101F300030EE410A10EE100A02F034F9019A41EC39
:101F4000100B51EC100B62F3DF7141EC100B51ECF4
:101F5000100B01F0EDFB014640F20800C2F2000058
:101F6000016090ED000A0120FFF744FB4FF0804034
:101F700000F05CFEFFE702B080BD00BF00BF00BF05
:101F8000000000000000000081B000900099C868C7
:101F900040F00100C86001B07047000080B582B019
:101FA000019001980021C4F20101884209D1FFE7A4
:101FB00043F64401C4F20201086840F001000860E1
:101FC0007AE00198B0F1804F09D1FFE743F6400174
:101FD000C4F20201086840F0010008606BE001985B
:101FE00040F20041C4F20001884209D1FFE743F604
:101FF0004001C4F20201086840F00200086059E0A4
:10200000019840F60001C4F20001884209D1FFE7BF
:1020100043F64001C4F20201086840F00400086081
:1020200047E0019840F60041C4F20001884209D11E
:10203000FFE743F64001C4F20201086840F00800DF
:10204000086035E0019844F20001C4F201018842C1
:1020500009D1FFE743F64401C4F20201086840F4E5
:102060008030086023E0019844F20041C4F201018D
:10207000884209D1FFE743F64401C4F2020108682F
:1020800040F40030086011E0019844F60001C4F209
:102090000101884209D1FFE743F64401C4F202017D
:1020A000086840F480200860FFE7FFE7FFE7FFE7EC
:1020B000FFE7FFE7FFE7FFE70120009001980099A5
:1020C00000F016F80199086820F0100008600199E6
:1020D000086840F00100086002B080BD80B582B0A1
:1020E000019000910198009900F002F802B080BDC3
:1020F00086B00590049143F60800C4F2020000681F
:102100008007002806D5FFE74BF60050C0F20150CB
:1021100002900EE043F60800C4F2020000680020BE
:1021200030B9FFE742F20040C0F2F4000290FFE74E
:10213000FFE70598B0F1804F08D0FFE7059840F61B
:102140000041C4F20001884224D1FFE7029840090F
:1021500045F6C521C0F67C21A0FB0110C009ADF8F1
:102160000E000298BDF80E10B0FBF1F044F6D3510A
:10217000C1F26201A0FB011080090499484301905B
:10218000BDF80E000138059988620198013805995B
:10219000C86225E00298400945F6C521C0F67C21B9
:1021A000A0FB0110C009ADF80E000298BDF80E109A
:1021B000B0FBF1F044F6D351C1F26201A0FB011073
:1021C000800904994843ADF80200BDF80E000138BB
:1021D00005998862BDF8020001380599C862FFE7D9
:1021E00006B0704786B00590049143F60800C4F22B
:1021F000020000688007002806D5FFE74BF6005074
:10220000C0F2015002900EE043F60800C4F2020052
:102210000068002030B9FFE742F20040C0F2F4004D
:102220000290FFE7FFE70598B0F1804F08D0FFE785
:10223000059840F60041C4F2000188421FD1FFE733
:1022400002984DF68361C4F21B31A0FB0120800C83
:10225000ADF80E000298BDF80E20B0FBF2F0A0FB26
:102260000110800C049948430190BDF80E0001381C
:1022700005998862019801380599C86220E00298A2
:102280004DF68361C4F21B31A0FB0120800CADF838
:102290000E000298BDF80E20B0FBF2F0A0FB01107A
:1022A000800C04994843ADF80200BDF80E000138D7
:1022B00005998862BDF8020001380599C862FFE7F8
:1022C00006B0704780B582B00190019941F20000DC
:1022D000C4F2010000F028F802B080BD80B541F2E0
:1022E0000000C4F2010009210A224FF4165300F045
:1022F000D9FA80BD80B582B00190019944F20040C6
:10230000C4F2000000F010F802B080BD80B544F2C5
:102310000040C4F20000022103224FF4165300F0E3
:10232000C1FA80BD0000000080B588B0079006911A
:102330000799C86820F40050C86007990020886099
:1023400043F2A070C4F6A0400590079844F2004103
:10235000C4F20001884209D1FFE79DED050AB0EE05
:10236000001A80EE010A8DED050AFFE7059801F0DD
:1023700019FF41EC100B9FED281B53EC112B51EC76
:10238000100B01F0BBFA41EC100B8DED000B069821
:1023900001F03DFC9DED001B41EC100B51EC110BCD
:1023A00053EC102B01F0AAFA41EC100B51EC100B7E
:1023B00001F0BEF904909DED040ABCEEC00A8DED5B
:1023C000030A9DED040A9DED031AB8EE411A30EEA2
:1023D000410AB3EE001A20EE010A10EE100A01F0D5
:1023E000E1FE41EC100B01F0FFF851EC100B01F095
:1023F000E1FB02900399029840EA0112079988686C
:10240000104388600799C86840F40050C86008B05D
:1024100080BD00BF00BF00BF0000000000003040D2
:1024200080B584B041F20000C4F2010000F082FCEB
:10243000002800F08A81FFE741F20000C4F20100A9
:1024400000F020FA014640F28400C2F20000017060
:1024500000781B2840D1FFE741F20000C4F20100E0
:1024600000F010FA8DF80F009DF80F005B2832D1B4
:10247000FFE741F20000C4F2010000F003FA8DF81A
:102480000E009DF80E00413801460291032820D825
:102490000299DFE801F00209101744F25E40C0F62D
:1024A0000000FDF755FF15E044F25340C0F6000070
:1024B000FDF74EFF0EE044F27240C0F60000FDF75B
:1024C00047FF07E044F26740C0F60000FDF740FF19
:1024D00000E0FFE7FFE737E144F27E41C0F600018C
:1024E00041F20000C4F2010000900A2200F01AFB41
:1024F000009840F28401C2F200010191012200F033
:1025000011FB009844F27B41C0F60001022200F06A
:1025100009FB0198017844F2F730C0F60000FDF79E
:1025200017FF019800784C281DD1FFE740F2800189
:10253000C2F200010120086040F20C01C2F2000169
:102540004FF07C50086040F21001C2F200014CF6DE
:10255000CD40C3F64C70086044F2CD30C0F60000A8
:10256000FDF7F6FEEFE040F28400C2F200000078D2
:10257000522808D1FFE740F28000C2F20000006854
:1025800001280FD0FFE740F28400C2F2000000787B
:1025900052281ED1FFE740F28000C2F2000000681E
:1025A000B8B9FFE740F20C01C2F200014CF6CD4091
:1025B000C3F64C70086040F21001C2F200014FF007
:1025C0007C50086044F2DA30C0F60000FDF7C0FE2F
:1025D000B8E040F28400C2F200000078552808D12B
:1025E000FFE740F28000C2F20000006801280FD02F
:1025F000FFE740F28400C2F20000007855281CD1A9
:10260000FFE740F28000C2F200000068A8B9FFE7CF
:1026100040F20C01C2F200014CF6CD40C3F64C7002
:10262000086040F21001C2F20001086044F2E83094
:10263000C0F60000FDF78CFE83E040F28400C2F299
:1026400000000078532808D1FFE740F28000C2F272
:102650000000006801280FD0FFE740F28400C2F2BA
:1026600000000078532834D1FFE740F28000C2F226
:102670000000006868BBFFE72220FEF783FF0146E9
:1026800040F28800C2F20000016090ED000AB8EE4E
:10269000400A40F20C00C2F2000080ED000A232044
:1026A000FEF770FF014640F28C00C2F200000160AC
:1026B00090ED000AB8EE400A40F21000C2F20000AD
:1026C00080ED000A44F2C530C0F60000FDF740FE80
:1026D00036E040F28000C2F20000006801282ED1EE
:1026E000FFE740F28400C2F20000007830280BD1EE
:1026F000FFE705200021FEF759FF44F2B030C0F695
:102700000000FDF725FE13E040F28400C2F2000055
:10271000007831280BD1FFE705200121FEF746FFA5
:1027200044F2BB30C0F60000FDF712FEFFE7FFE702
:1027300040F28001C2F2000100200860FFE7FFE7DD
:10274000FFE7FFE7FFE7FFE7FFE704B080BD00001A
:1027500080B584B044F20040C4F2000000F0EAFA10
:10276000002872D0FFE744F20040C4F2000000F0FD
:1027700089F8014640F29400C2F20000017000782E
:102780001B2840D1FFE744F20040C4F2000000F0F3
:1027900079F88DF80F009DF80F005B2832D1FFE724
:1027A00044F20040C4F2000000F06CF88DF80E0016
:1027B0009DF80E00413801460291032820D8029965
:1027C000DFE801F00209101744F21340C0F60000E0
:1027D000FDF7BEFD15E044F21740C0F60000FDF71E
:1027E000B7FD0EE044F21F40C0F60000FDF7B0FD5B
:1027F00007E044F21B40C0F60000FDF7A9FD00E031
:10280000FFE7FFE720E040F29401C2F200010191EE
:1028100041F20000C4F20100012200F083F90198A6
:10282000017844F22340C0F60000FDF791FD0198C5
:1028300000780D2807D1FFE744F27B40C0F6000086
:10284000FDF786FDFFE7FFE7FFE704B080BD00006E
:1028500082B0019001986421414344F62510C2F2F0
:102860009240A1FB0020091A00EB51008008009063
:10287000FFE700980138009008B1FFE7F9E702B0E0
:102880007047000081B00090FFE70098006800F0FA
:102890002000202801D0FFE7F7E700984068C0B289
:1028A00001B0704780B58EB00D908DF833108DF863
:1028B00032200B939DF933000AA909AA00F0C0F950
:1028C0009DF9320008A907AA00F0BAF99DF9330072
:1028D00002210491FEF7C2FD9DF93300002105910C
:1028E000FEF712FE05999DF93300FEF72BFE9DF9C8
:1028F000330003210691FEF7E7FD04999DF93200AC
:10290000FEF7ACFD05999DF93200FEF7FDFD059936
:102910009DF93200FEF716FE06999DF93200FEF78A
:10292000D3FD0D9841F20041C4F20101884237D134
:10293000FFE7099807280AD8FFE7099881000820CF
:1029400000FA01F20A99086A104308620CE009993A
:102950006FF01F0000EB8101082000FA01F20A99D4
:10296000486A10434862FFE7079807280AD8FFE73C
:1029700007988100082000FA01F20899086A1043BC
:1029800008620CE007996FF01F0000EB810108203E
:1029900000FA01F20899486A10434862FFE736E0FE
:1029A000099807280AD8FFE709988100072000FA4C
:1029B00001F20A99086A104308620CE009996FF065
:1029C0001F0000EB8101072000FA01F20A99486A12
:1029D00010434862FFE7079807280AD8FFE70798DF
:1029E0008100072000FA01F20899086A1043086282
:1029F0000CE007996FF01F0000EB8101072000FA3F
:102A000001F20899486A10434862FFE7FFE70D9812
:102A100041F20001C4F20101884209D1FFE743F607
:102A20004401C4F20201086840F0100008601AE096
:102A30000D9844F20041C4F20001884209D1FFE739
:102A400043F64001C4F20201086840F40030086017
:102A500008E043F64401C4F20201086840F0200097
:102A60000860FFE7FFE70D99C86820F40050C860D0
:102A70000D99C86820F48060C8600D99C86820F47A
:102A80008050C8600D99C86820F40040C8600D9956
:102A9000086920F4405008610D980B99FFF744FC39
:102AA0000D99C86840F00C00C8600D99C86840F4E2
:102AB0000050C8600D99C86840F02000C8600D98AB
:102AC00041F20001C4F20101884209D1FFE725204B
:102AD0000390012100F088F8039800F06DF81AE0E7
:102AE0000D9844F20041C4F20001884209D1FFE789
:102AF00026200290012100F077F8029800F05CF89F
:102B000008E047200190012100F06EF8019800F0E4
:102B100053F8FFE7FFE70D99C86840F40050C8601C
:102B20000EB080BD80B584B0039002910192002068
:102B30000090FFE700980199884216D2FFE7FFE76F
:102B4000039800680006002801D4FFE7F8E7029820
:102B50000099405C039948604FF49670FFF778FE47
:102B6000FFE7009801300090E4E7FFE70398006872
:102B70004006002801D4FFE7F8E70399086820F031
:102B80004000086004B080BD81B08DF803009DF95D
:102B9000030000280ED4FFE79DF9031001F01F0287
:102BA000012090404A094EF20011CEF2000141F896
:102BB0002200FFE701B0704781B08DF803009DF956
:102BC000030000280ED4FFE79DF9031001F01F0257
:102BD000012090404A094EF20011CEF2000141F866
:102BE0002200FFE701B0704782B08DF80700009126
:102BF0009DF9070000280AD4FFE7009800019DF91D
:102C000007104EF20042CEF2000288540BE000980A
:102C100000019DF8071001F00F014EF61452CEF29C
:102C200000028854FFE702B07047000081B00090B6
:102C30000099086920F00100086101B070470000A8
:102C400085B08DF81300039102929DF8130000F0F7
:102C50000F0001900198029908609DF9130000117E
:102C60000090009830B9FFE703990020C4F20200F9
:102C7000086041E00098012807D1FFE7039940F27E
:102C80000040C4F20200086035E00098022807D135
:102C9000FFE7039940F60000C4F20200086029E053
:102CA0000098032807D1FFE7039940F60040C4F2DB
:102CB000020008601DE00098042807D1FFE703998F
:102CC00041F20000C4F20200086011E000980728F9
:102CD00007D1FFE7039941F60040C4F20200086003
:102CE00005E003990020C4F202000860FFE7FFE757
:102CF000FFE7FFE7FFE7FFE705B0704780B584B067
:102D00000390029103988DF8070044F20040C4F24A
:102D100000000DF107010122FFF704FF039804B042
:102D200080BD000081B000900098006900F00100B3
:102D300001B0704781B000900098006800F020005A
:102D400001B0704780B582B00020019000F014F807
:102D500044F24440C0F60000FDF7FAFA44F2324172
:102D6000C0F6000141F20000C4F201001122FFF799
:102D7000D9FEFFE7FEE7000080B586B0FEF7F0FF62
:102D8000FFF7C4FA4FF416500090FFF7B3FAFFF7BD
:102D9000A5FA0098FFF796FA052001210591FEF7A4
:102DA0005DFB00200390FEF78BFC03984FF4FA7153
:102DB0000191FEF725FE039840F20401C2F20001E2
:102DC00091ED000AFEF716FC0598FEF779FC0199D3
:102DD0000598FEF715FE059840F20801C2F20001C1
:102DE00091ED000AFEF706FC059922200290FEF7FD
:102DF00035FB02980399FEF787FB05992320049081
:102E0000FEF72CFB03990498FEF77EFB04980599C6
:102E1000FEF7CCFB4FF08040FFF7B6F81C20FFF721
:102E2000B3FE06B080BD5FEA400C08BF91F0000F12
:102E30004FEA8C234FEAC12243EA51514FEA1C501A
:102E400018BF00F5F0404FEA300018BF41F00041D4
:102E50005FEA6C5C00F02980BCF1FF3F08BF40F0E6
:102E600080407047130C06BF12044FF0100C4FF057
:102E7000000C130E04BF12020CF1080C130F04BF58
:102E800012010CF1040C930F04BF92000CF1020C20
:102E9000D30F04BF52000CF1010C11464FF0000299
:102EA000A0F11F00A0EB0C00704711F0004F08BF0D
:102EB000704731F000413FF4D5AF0B0C06BF090459
:102EC0004FF0100C4FF0000C0B0E04BF09020CF178
:102ED000080C0B0F04BF09010CF1040C8B0F04BF8D
:102EE00089000CF1020CCB0F04BF49000CF1010C5E
:102EF000CCF1200322FA03F341EA030102FA0CF2B7
:102F0000A0EB0C0000F101007047000023F07F47A8
:102F100020F07F4C80EA030000F00040ACEB070398
:102F200003F57C5303F1FF032DE9804909B44FEA0F
:102F3000144324EA03484FEA154B25EA0B4E0FF2DF
:102F4000042606EB13273E7803FB0667C7F5000748
:102F500007FB06F64FEAD64606F102064FEA54375B
:102F600007FB066CCCF1005C4FEA1C472CEA074CCF
:102F70000CFB06F507FB06F404EB15464FEA961624
:102F800049085FEA320234BF00204FF000404FEAA8
:102F9000D13706FB07FC4FEA1C4C0CFB0BF7D21B8E
:102FA00003FB0CF761EB07010CFB0EF7B0EB0740DE
:102FB00072EB17420CFB08F734BFA2EB0742B2EBEF
:102FC000074261EB17414FEA0C444FEA910706FBB9
:102FD00007FC4FEA1C4C0CFB0BF7B0EBC74072EB45
:102FE000573203FB0CF734BFA2EBC742B2EBC74228
:102FF00061EB57310CFB0EF7B0EBC70072EB577269
:103000000CFB08F734BFA2EBC702B2EBC70261EBBF
:1030100057714FEA816141EA92114FEA826242EAB6
:1030200090124FEA806004EBCC04039F4FEAD13743
:1030300006FB07FC4FEA1C4C0CFB0BF7D21B03FBF7
:103040000CF761EB07010CFB0EF7B0EB074072EBDE
:1030500017420CFB08F734BFA2EB0742B2EB074262
:1030600061EB17414FEA8C5504EB9C244FEA910722
:1030700006FB07FC4FEA1C4C0CFB0BF7B0EBC74000
:1030800072EB573203FB0CF734BFA2EBC742B2EB33
:10309000C74261EB57310CFB0EF7B0EBC70072EB88
:1030A00057720CFB08F734BFA2EBC702B2EBC702A2
:1030B00061EB57714FEA816141EA92114FEA8262F6
:1030C00042EA90124FEA806015EB4C2544F100046F
:1030D0004FEAD13706FB07FC4FEA1C4C0CFB0BF701
:1030E000D21B03FB0CF761EB07010CFB0EF7B0EBF7
:1030F000074072EB17420CFB08F734BFA2EB074204
:10310000B2EB074261EB17414FEA813141EA92414C
:103110004FEA823242EA90424FEA80304FEA0C7620
:1031200015EB1C1544F1000448EA03434EEA0B4832
:103130004FF0000EB2EB080C71EB030724BF6246A0
:1031400039464EEB0E0E4FF0000B0018524149412C
:103150004BEB0B0BB2EB080C71EB03077BF1000B95
:1031600024BF624639464EEB0E0E4FF0000B00189E
:10317000524149414BEB0B0BB2EB080C71EB0307CF
:103180007BF1000B24BF624639464EEB0E0E51EA2E
:10319000020718BF46F0010616EB0E7655F1000245
:1031A00054F1000103D5BDE88901BDE80088BDE800
:1031B0008901BDE80048B619524141EB0101A3F174
:1031C0000103704780807F7E7D7C7B7A797877767B
:1031D00076757473727171706F6E6E6D6C6C6B6AF4
:1031E0006A69686867666665646463636261616092
:1031F000605F5F5E5E5D5D5C5C5B5B5A5A5959580F
:103200005857575656555555545453535252525178
:10321000515050504F4F4F4E4E4D4D4D4C4C4C4BCE
:103220004B4B4A4A4A494949484848474747474615
:103230004646454545444444444343434342424251
:10324000424141419C46002B30D477002BD04FEABD
:1032500037071CB503B44FF010004FF01001BAF15E
:10326000000F06D0BCF1000FDCBF40F0080040F0BA
:1032700008014FF000000FBCBDE810400BF1010B3E
:10328000BBF1010F08BF5FEA170722BF12F101026D
:1032900011F101014FF0004143F1000300F0004043
:1032A00043EA00007047F9D35708D0E746EA0646DC
:1032B0004FEA164613F1400F1FDD13F1200FDFBF59
:1032C00016430A46002120335B42BED0C3F12007DB
:1032D00046EA06464FEA164602FA07F746EA0706A6
:1032E00022FA03F2C3F1200701FA07F742EA0702C4
:1032F00021FA03F14FF00003A7E746EA020646EA87
:1033000006464FEA164646EA0106BCBF46EA0646AE
:10331000360C4FF000034FF000024FF0000194E72D
:103320002DE9804C70B49A46934691E8380007C85E
:1033300031EA400C48BF34EA430C03D5FFF7E6FD01
:10334000FFF780FFF0BCBDE8008C2DE9804C70B425
:103350009A46934691E8380007C810F0804F08BF9E
:1033600013F0804F03D100F005F8FFF76BFFF0BCBE
:10337000BDE8008C20F07F4723F07F4C80EA0300FB
:1033800000F0004007EB0C03A3F57C53A3F1FE0310
:1033900092F0000F00F0B38095F0000F00F07780FE
:1033A0002DE901494FEA114021EA00484FEA14464D
:1033B00024EA064700FB06FC08FB06F607FB08F8B4
:1033C00018EB06484CEB164C00FB07F718EB0748C8
:1033D0004CEB17404FEA124B22EA0B4E4FEA1546D0
:1033E00025EA06470BFB06FC0EFB06F607FB0EFE66
:1033F0001EEB064E4CEB164C0BFB07F71EEB074E75
:103400004CEB174B18EB0B0840F1000018EB0E0BC0
:1034100058EB000840F100008F1A4FF000014FF008
:1034200000063CBFC943661B14BFB5EB040C00216A
:103430003CBFC943F61B4FEA174427EA04454FEA4D
:103440001C472CEA074C04FB076205FB07F70CFB43
:1034500005F616EB074642EB174204FB0CFC16EB95
:103460000C4642EB1C421BEB060658EB02024141A4
:103470004EEA8E0E46EA9E0601D5BDE80189B619D0
:10348000524141EB0101A3F10103BDE801894FEA7B
:10349000144524EA05464FEA114721EA074C05FB8B
:1034A00007F406FB07F70CFB06F111EB074144EBB1
:1034B000174405FB0CFC11EB0C4144EB1C444FEA98
:1034C000124722EA074C05FB07F206FB07F70CFB45
:1034D00006F616EB074642EB174205FB0CFC16EB13
:1034E0000C4642EB1C456A1854F1000148BF704776
:1034F000B619524141EB0101A3F10103704795F068
:10350000000F37D04FEA114221EA02464FEA144732
:1035100024EA074C02FB07F106FB07F70CFB06F455
:1035200014EB074441EB174102FB0CFC14EB0C4479
:1035300041EB1C414FEA154725EA074C02FB07F512
:1035400006FB07F70CFB06F616EB074645EB17459F
:1035500002FB0CFC16EB0C4645EB1C42121951F118
:10356000000148BF7047B619524141EB0101A3F178
:10357000010370474FEA144524EA05464FEA114714
:1035800021EA074C05FB07F106FB07F70CFB06F2E7
:1035900012EB074241EB174105FB0CFC12EB0C420E
:1035A00051EB1C414FF0000648BF7047921841EBA9
:1035B0000101A3F10103704703B401984100009891
:1035C00050EAC12018BF04204A0D18BF40F0010086
:1035D00040F2FF72B2EB515F08BF40F002000128D9
:1035E00008BF052002B0704710B52DED020B2DED80
:1035F000088B84B09DED0C0B51EC100B00F08AFC95
:1036000041EC180B9DED0C0B53EC182B51EC100BEF
:1036100000F0DAFC41EC190B0D989FED290B10F02E
:10362000004F53EC102B51EC190B9FED21AB9FED8C
:1036300022BB0ED000F0FEFA0ED953EC1B2B51EC3E
:10364000190B00F031FC1CD214E000BF41EC180B48
:1036500017E000F0EFFA06D253EC1A2B51EC180BDE
:1036600000F0B2FCF2E753EC1B2B51EC190B00F00D
:103670001BFC06D853EC1A2B51EC180B00F08AF8FF
:10368000E4E78DED028B9DED0C0B18EE901A10EE19
:10369000900A8DED000B61F31E0003909DED020B6F
:1036A00004B0BDEC088B02B010BD000000000000AB
:1036B000000000000000F03F000000000000E03FBC
:1036C000000000000000E0BF30380A2801D20120CD
:1036D000704700207047000010B500290AD0087814
:1036E000002807D005487844FDF772FE002801D075
:1036F000002010BD0248784410BD0000C60D000037
:10370000BE0D000010B500290AD00878002807D0A7
:1037100005487844FDF75CFE002801D0002010BD6C
:103720000248784410BD0000B60D0000AE0D000048
:1037300021F0004201F00043A2F16052B2F5801F77
:1037400028BFD2F17F6C0BD95FEA001C43EAC202AA
:1037500042EB507018BF704728BF20F0010070473F
:10376000B2F5801FBCBF184670474FEA410C1CF5EC
:10377000001F02D2084600F093BD70B500F040FB78
:1037800000000089FFF7F6BF4FF00040A0F5800071
:103790007047000010B591EA030F48BF83F0004363
:1037A00000F11A84841A71EB030C05D2121943EB51
:1037B0000C03001B61EB0C014FEA1154A4EB135CEA
:1037C000DFF81CE11EEA430F18BF9EEA445F00F0D9
:1037D000748021EA045123EA0E0343F48013DCF1E0
:1037E000200E32D322FA0CFE10EB0E0023FA0CFE50
:1037F00041EB0E01CCF1200E03FA0EFE10EB0E0091
:10380000CCF1200E51F10001B1F5801F32D201EB55
:10381000045112FA0EF2BDE8104058BF7047401C28
:1038200038BF5FEA420218BF7047002814BF20F07B
:10383000010041F100014FEA410313F5001F38BFB9
:103840007047A1F1C04100F029BB012A43EB0302FC
:10385000ACF1200CDCF11F0E32BF4FF0000E23FA4A
:103860000CF310EB030041EB0451B4EB115FD0D02B
:10387000A1EB045101F58011490801EB04515FEA05
:1038800030000ED350F1000038BF12FA0EFE08D1FE
:10389000BDE81040C9E7401C38BF5FEA4202CAD108
:1038A000C3E7BDE810404FEA410313F5001F38BFDE
:1038B0007047A1F1C04100F0F1BA9EEA445F08D020
:1038C00011EA5E0FBDE8104004BF01F00041002086
:1038D0007047BDE8104070B500F092FA64FBBE3E40
:1038E0000000E0FF491058BFC1F140415B1058BFD4
:1038F000C3F140438B42EFF3008070472DE9C04194
:1039000030B4DFF8A8C23CEA111418BF3CEA131423
:1039100000F0F0801CEA111481EA030544EAD57432
:1039200018BF1CEA131500F0CB80A4EB050404F1CA
:103930007F7404F500344FF0004545EAC12145EAA3
:10394000C32341EA505143EA52534FEAC0204FEAA1
:10395000C222994208BF904200F0A0804FEA13654E
:103960000FF24816765D4FEA134506FB05F7C7F1DF
:10397000807706FB07F74FEAD737A7FB0368764245
:10398000A7FB06CEC8F5803838BFA8F1010807FBB1
:1039900008E6A6FB028C4FF0000EE6FB03CED8F142
:1039A00000086FEA0C0C5CF1000C6FEA0E0E4EF191
:1039B000004EA6FB0C584FF00007E6FB0E87A1FB5C
:1039C00008C6A0FB07CE16EB0E064FF0000545F12A
:1039D0000005E1FB076515F1E04E7EBFA4F58034DC
:1039E0005FEA46066D4116F1800745F100054FEA92
:1039F000172747EA05674FEA15254FEA0666A6F13D
:103A0000DE46B6F1805F20D9384605EBC47124F05C
:103A1000010C01EB0C11BCF1FE6F02D8F0BCBDE84B
:103A2000008124425CBF01F5801E9EEAC47F02D45F
:103A3000F0BCBDE80081244200F13980A1F1C04111
:103A4000F0BCBDE8004100F029BA4FEAD02040EABE
:103A500041504FEAD1214FEAD22242EA43524FEA83
:103A6000D323A7FB028607FB036605FB02661EEA5B
:103A70000E0F58BFA6EB0056B6EB00564FEA520E9B
:103A80004EEAC37E18EB0E0E56EB530EBCD518EB68
:103A900002085E417F1C55F10005B5E74FF4801523
:103AA0004FF000074FF000064FF00008ACE701F1BF
:103AB000C04101F000414FF00000F0BCBDE80081C2
:103AC0000CEA131511EA0C1F00D00CE013EA0C1FCE
:103AD00000F025804FF0000081EA030101F0004171
:103AE000F0BCBDE80081F0BCBDE8004181EA030103
:103AF00000F0D4B9F0BCBDE8004170B500F080F929
:103B0000097EFC3E00F007B84FF0000081EA030197
:103B100001F00041704781EA030100F0BFB9F0BC39
:103B2000BDE8004122494FF000007047FFFDFBF95E
:103B3000F7F5F4F2F0EEEDEBE9E8E6E4E3E1E0DEE0
:103B4000DDDBDAD8D7D5D4D3D1D0CFCDCCCBCAC852
:103B5000C7C6C5C4C2C1C0BFBEBDBCBBBAB9B8B779
:103B6000B6B5B4B3B2B1B0AFAEADACABAAA9A8A86C
:103B7000A7A6A5A4A3A3A2A1A09F9F9E9D9C9C9B3A
:103B80009A999998979796959594939392919190E5
:103B90008F8F8E8E8D8C8C8B8B8A89898888878776
:103BA0008685858484838382828181800000FF07EB
:103BB0000000F87F4FEA1153A3F58063D3F11E0391
:103BC000A8BFD3F1200C08DB4FF0004242EAC1222B
:103BD00052EA505232FA03F0704709420BD4102BCC
:103BE000C4BF0020704703F5787CBCF1FF3F05D0CF
:103BF0004FF0FF3070474FF00000704770B500F095
:103C0000FFF800BF4992248000207047F0E7B0FA27
:103C100080F310FA03F10AD0C3F11D0303F58063AA
:103C20004FEA03524FEA415002EBD12170474FF067
:103C30000000704751EA030C17D41CF5801F58BFD1
:103C4000BCF5801F00F10680994218BF704708BF7D
:103C50009042704707D711F5801F58BF13F5801F9A
:103C600019D499427047894270471CF5801F08D5C6
:103C7000BCF5801FF7D58B4218BF704708BF824242
:103C800070474FF4001C1CEB410F38BF1CEB430F77
:103C900001D28B42704770B500F0B2F8922449000F
:103CA0004FF000514FF08053FFF71CBE70B5DFF8A6
:103CB00048C11CEA111E1EBF1CEA13159EEA0C0F18
:103CC00095EA0C0F00F06F8081EA03044EEAD47E7F
:103CD000AE4421EA4C1123EA4C1341F4801143F421
:103CE0008013AEF17F7EA1FB024CA0FB0365361969
:103CF00055EB0C05A1FB034C4CF10003A0FB021C8F
:103D000016EB0C06654153F10003094218BF46F05B
:103D1000010613F4007F0BD14FEA03314FEA05305F
:103D200041EA155140EA165034036FF003020AE0ED
:103D30004FEAC3214FEAC52041EA555140EA5650A7
:103D4000F4026FF0020202EB2E4201EB025585EA0B
:103D5000CE710AD05FEA440C18BF24F0004450F141
:103D6000000041F1000120EAD47040F2FE7C62457F
:103D700000D270BDA84214BF4FF080444FF04044C1
:103D8000002E08BF0024BEF1806FA8BFA1F1C04182
:103D9000BDE8704080F2828001F1C04101F0004135
:103DA0004FF0000070470CEA13159EEA0C0F18BF85
:103DB00095EA0C0F06D081EA030E4FF000000EF0DA
:103DC000004170BD00F01CF88900013E00F007B80A
:103DD00000F009B84FEA430C5FEA5C5C08D081EA66
:103DE000030100F05BB84FEA410C5FEA5C5CF6D17E
:103DF00002494FF0000070470000FF070000F87F05
:103E00000EF1020E2EF0030E5EF8046B364205D45E
:103E1000012A43EB030515F5001F12D8012841EBD9
:103E2000010C1CF5001F0CD80ED14FEAD17C0CEB15
:103E30004C0C0CF1020C15F5001F08BF4CEBD37CA9
:103E400004E04FF0080C01E04FEAD37C0CEB4C058A
:103E500026FA05F606F00706B6F1040C06D20EEBBC
:103E6000860CBDE870404CF0010C6047DFE80CF0B8
:103E7000090B02024FF00041A1F500214FF00000B4
:103E800070BD19461046012851EB010418BFD4F546
:103E9000001484BF002001F0004170BD0808A0F5A7
:103EA00000114FEA3101704753EA010C17D41CF599
:103EB000801F58BFBCF5801F00F106808B4218BFE1
:103EC000704708BF8242704707D713F5801F58BF5D
:103ED00011F5801F19D48B4270479B4270471CF527
:103EE000801F08D5BCF5801FF7D5994218BF7047D1
:103EF00008BF904270474FF4001C1CEB430F38BFC3
:103F00001CEB410F01D2994270470FB40CBC03BCAB
:103F1000FFF7C1BE5FEA410C5FEA5C5CACF5806311
:103F20005B1C39D4D3F1340240F34580B2F1200355
:103F300014DA4FF0010C0CFA02FCACF1010303405F
:103F400020EA0300B3EB5C0208BF10EA0C0F98BF35
:103F5000704710EB0C0041F1000170470AD0C3F12B
:103F6000200201FA02FC01284CF1000021FA03F1C1
:103F700001FA03F14FF0010C0CFA03FCACF1010360
:103F800021EA0301B0F1004F08BF11EA0C0F4FF016
:103F9000000088BF61447047B3F1FF3F28BF50EA7B
:103FA000C12C01F000414FF0000084BF41F07C5172
:103FB00041F470017047B3F5806FB8BF704770B5BA
:103FC000FFF71EFF40DBB6BE10B591EA030F48BFF6
:103FD00083F000433FF5E6AB841A71EB030C07D284
:103FE0008CF0004C121943EB0C03001B61EB0C012D
:103FF0004FEA1154A4EB135CDFF8A4E11EEA430F6F
:1040000018BF9EEA445F00F0B48021EA045123EA1D
:104010006E035242C3EB6E0338BF5B1EDCF1200E11
:1040200025D322FA0CFE10EB0E0043FA0CFE41EBF6
:104030000E01CCF1200E03FA0EFE10EB0E00CCF1B7
:10404000200E51F1000129D401EB045112FA0EF2B5
:10405000BDE8104058BF7047401C1CBFB2F1004F74
:10406000704700280CBF491C20F00100704712EB7C
:10407000020E43EB030218BF4FF0010E4EEA42025C
:10408000ACF1200CDCF11E0E56D943FA0CFE10EBFD
:104090000E00CCF11E0E51F1FF31D5D50EF1010EFF
:1040A00012FA0EFE404141EB010101EB445C5FEA74
:1040B0005C5C10D901EB045110EBDE7038BFBEF12F
:1040C000004FBDE8104018BF704700280CBF491CC6
:1040D00020F00100704734D24FEAD42C24F400645D
:1040E00011F500111BD0B1FA81F20B3AA41AA41EEB
:1040F000D2F12003914030FA03F31943904001EBD1
:10410000CC7101EB0451002CBDE81040A8BF7047F2
:1041100001F1C04101F000414FF000007047B0FADA
:1041200080F310FA03F102D1BDE810407047E41AA1
:10413000173C4805C90AE2E701EB0451BDE810400D
:10414000704749104FEA300001EB0451BDE81040C0
:1041500002E04FF0000170474A0008BF0042F8D06B
:10416000B2F5001F28BF704701F000414FF000007A
:1041700070479EEA445F07D011EA5E0FBDE8104029
:1041800004BF002100207047BDE8104070B5FFF764
:1041900037FE00BF40DFF63E104683F00041704717
:1041A0000000E0FF43004FEAD30C4FEA3C0C4340D1
:1041B0001FBF40070CF1605113F0FE4F70471CF019
:1041C000006F03D10CF00041002070470CF0004359
:1041D00043EA507040EACC0010B500F00EF800BF82
:1041E000000000924FEA0001FFF758BE4FF0004177
:1041F000A1F500214FF0000070470EF1020E2EF0E5
:10420000030E5EF8044B244204D44FEA4102B2F19B
:104210007F4F11D84FEA4003B3F17F4F0CD80ED136
:104220004FEAD07C0CEB4C0C0CF1020CB2F17F4F3E
:1042300008BF4CEBD17C04E04FF0080C01E04FEAE2
:10424000D17C0CEB4C0324FA03F404F00704B4F122
:10425000040C06D20EEB840CBDE810404CF0010CAF
:104260006047DFE80CF0070802024FF00040A0F5BD
:10427000800010BD0846420018BFD2F1807288BF8E
:1042800000F0004010BDF1EE100A4FF6FF71C0F2D1
:10429000C03120EA010040F04070E1EE100A7047A2
:1042A000FF2141EAD050C0057047FCF77DBCFCF708
:1042B000B1BD0000000000000000000030313233CA
:1042C000343536373839414243444546403058004A
:1042D000303132333435363738396162636465667C
:1042E00040307800040000080000000000000002D8
:1042F000000100001030313233343536373839613F
:104300006263646566787000303132333435363735
:1043100038394142434445465850000002400000AD
:10432000000000A00000000005400000000000C8E0
:10433000000000000C4000000000409C0000000055
:10434000194000000020BCBE000000003440000006
:10435000BFC91B8E00000004B5400000504BCFD0F9
:104360006607E2CF010000006C4100003E8251AAC6
:10437000DFEEA73401000000D9420000DCB5A0E266
:104380003A301F97FFFFFFFFB4450000FD25A0C88E
:10439000E9A3C14FFFFFFFFFFF3F000000000080C7
:1043A00000000000FF3F000000000080000000004F
:1043B0004C4544204F46460D0A0A004C4544204FC8
:1043C0004E0D0A0A0053746F700D0A0A005475727C
:1043D0006E204C6566740D0A0A005475726E205288
:1043E000696768740D0A0A00476F20737472616907
:1043F0006768740D0A0A004E55434C454F20676F9D
:1044000074203A202563202866726F6D204254295B
:104410000D0A00410D0A00420D0A00430D0A004436
:104420000D0A0052656365697665643A2025630D5F
:104430000A0048656C6C6F20626C7565746F6F74F0
:10444000680D0A0048656C6C6F204E75636C656F73
:104450000D0A00646F776E206B65790D0A00757028
:10446000206B65790D0A006C656674206B65790DAB
:104470000A007269676874206B65790D0A004254FE
:104480002073656E74203A2000000000D8450008B3
:104490000000002018000000FC010008F0450008A2
:1044A00018000020800600001C0200081C0000000C
:1044B00043000000F8FFFFFF0C0000000E000000AA
:1044C0000F0000002E00000010010000430000005B
:1044D000F8FFFFFF00404040404040404040414125
:1044E00041414140404040404040404040404040C9
:1044F0004040404040050202020202020202020263
:10450000020202020220202020202020202020025F
:1045100002020202020290909090909010101010EF
:10452000101010101010101010101010101010108B
:10453000020202020202888888888888080808081F
:1045400008080808080808080808080808080808EB
:104550000202020240000000000000000000000013
:10456000000000000000000000000000000000004B
:10457000000000000000000000000000000000003B
:10458000000000000000000000000000000000002B
:10459000000000000000000000000000000000001B
:1045A000000000000000000000000000000000000B
:1045B00000000000000000000000000000000000FB
:1045C00000000000000000000000000000000000EB
:1045D00000000000000000000024F400CDCC4C3F9F
:1045E000CDCC4C3FCDCC4C3FCDCC4C3F000000005F
:040000050800019955
:00000001FF
