:020000040800F2
:1000000070060020650200086D0200086F020008FB
:100010007102000873020008750200080000000069
:10002000000000000000000000000000770200084F
:1000300079020008000000007B0200087D02000831
:100040007F0200087F0200087F0200087F0200088C
:100050007F0200087F0200087F0200087F0200087C
:100060007F0200087F0200087F0200087F0200086C
:100070007F0200087F0200087F0200087F0200085C
:100080007F0200087F0200087F02000800000000D5
:100090000000000000000000000000007F020008D7
:1000A0007F0200087F0200087F0200087F0200082C
:1000B0007F0200087F0200087F0200087F0200081C
:1000C0007F0200087F0200087F0200087F0200080C
:1000D0007F0200087F0200087F0200080000000085
:1000E0007F0200087F0200087F0200080000000075
:1000F0000000000000000000000000007F02000877
:10010000000000007F0200087F0200087F02000854
:1001100000000000000000000000000000000000DF
:100120007F0200087F0200087F0200087F020008AB
:100130007F02000800000000000000000000000036
:100140000000000000000000000000007F02000826
:100150007F0200087F0200087F0200087F0200087B
:100160007F0200087F02000800000000000000007D
:10017000000000000000000000000000000000007F
:10018000000000007F0200080000000000000000E6
:100190007F0200087F02000800F002F800F052F829
:1001A00014A696E8000CB244B344DA4501D100F03D
:1001B00049F8BAE80F000FA696E83000A5EB040551
:1001C00004EB0607AAEB0704A7F101074FEA151590
:1001D0004FEA3414A4F10104AC4201D300F032F828
:1001E00013F0010F18BFFB1A43F0010300F001F8F0
:1001F000DBE718475407000074070000103A24BFDB
:1002000078C878C1FAD8520724BF30C830C144BF7B
:1002100004680C6070470000704700000023002451
:1002200000250026103A28BF78C1FBD8520728BF06
:1002300030C148BF0B6070471FB500F078FB1FBD91
:1002400010B510BD00F031F81146FFF7F5FF00F0D2
:100250006BFA00F04FF803B4FFF7F2FF03BC00F0B5
:1002600057F800000948804709480047FEE7FEE7C5
:10027000FEE7FEE7FEE7FEE7FEE7FEE7FEE7FEE756
:1002800004480549054A064B70470000310600083E
:100290009901000870000020700600207002002004
:1002A00070020020704770477047754600F02CF8C8
:1002B000AE4605006946534620F00700854618B053
:1002C00020B5FFF7DDFFBDE820404FF000064FF0FE
:1002D00000074FF000084FF0000BAC46ACE8C00937
:1002E000ACE8C009ACE8C009ACE8C00921F00701DE
:1002F0008D46704710B50446AFF300802046BDE838
:100300001040FFF7A8BF0000004870470800002019
:1003100001491820ABBEFEE726000200704700002E
:1003200080B584B08DF80F0002919DF90F0001A9EE
:100330006A4600F09BF99DF90F0000F0F9F89DF96D
:100340000F00029900F002F804B080BD80B584B0BF
:100350008DF80F0002919DF90F0001A96A4600F087
:1003600085F900984100032000FA01F2019908681C
:100370009043086002980099490000FA01F201993F
:1003800008681043086004B080BD000080B584B0E8
:100390008DF80F0002919DF90F0001A96A4600F047
:1003A00065F900984100032000FA01F2019988687C
:1003B0009043886002980099490000FA01F201997F
:1003C00088681043886004B080BD000080B584B0A8
:1003D0008DF80F0002919DF90F0001A96A4600F007
:1003E00045F90099012000FA01F20199486890430B
:1003F00048600298009900FA01F201994868104398
:10040000486004B080BD000080B584B08DF80F0056
:1004100002919DF90F0001A96A4600F027F90098A2
:100420004100032000FA01F20199C8689043C860B6
:1004300002980099490000FA01F20199C868104336
:10044000C86004B080BD000080B584B08DF80F0096
:100450009DF90F0002A901AA00F008F902980069AD
:100460000199C84000F001000090009804B080BDE0
:1004700080B584B08DF80F0002919DF90F0001A99D
:100480006A4600F0F3F80298012809D1FFE70298C4
:10049000009900FA01F2019948691043486108E0A7
:1004A0000099012000FA01F20199486990434861DE
:1004B000FFE704B080BD000043F63001C4F2020142
:1004C000086840F0010008607047000043F6300102
:1004D000C4F20201086840F00200086070470000A2
:1004E00043F63001C4F20201086840F004000860DD
:1004F0007047000043F63001C4F20201086840F082
:10050000080008607047000043F63001C4F20201A1
:10051000086840F0100008607047000043F63001A2
:10052000C4F20201086840F08000086070470000D3
:1005300080B584B08DF80F009DF90F0002A901AAC3
:1005400000F094F802980021C4F20201884203D11D
:10055000FFE7FFF7B1FFFFE7029840F60001C4F2A2
:100560000201884203D1FFE7FFF7BAFFFFE70298D5
:1005700040F20041C4F20201884203D1FFE7FFF7D5
:10058000A5FFFFE7029840F60041C4F2020188424D
:1005900003D1FFE7FFF7AEFFFFE7029841F200014A
:1005A000C4F20201884203D1FFE7FFF7ADFFFFE786
:1005B000029841F60041C4F20201884203D1FFE7EC
:1005C000FFF7ACFFFFE704B080BD000043F6000179
:1005D000C4F20201086840F001000860FFE743F63A
:1005E0000000C4F2020000688007002801D4FFE781
:1005F000F5E743F60801C4F20201086820F00300A1
:10060000086008680860FFE743F60800C4F20200CB
:10061000006810F00C0F01D0FFE7F5E740F2000191
:10062000C2F2000142F20040C0F2F40008607047DC
:100630004EF68851CEF20001086840F47000086060
:100640007047000082B0019000200090FFE7009802
:1006500001994FF47A725143884205DAFFE7FFE7C8
:10066000009801300090F2E702B0704785B08DF835
:100670001300039102929DF8130000F00F00019007
:100680000198029908609DF91300001100900098EC
:1006900030B9FFE703990020C4F20200086041E08E
:1006A0000098012807D1FFE7039940F20040C4F207
:1006B0000200086035E00098022807D1FFE703999F
:1006C00040F60000C4F20200086029E00098032808
:1006D00007D1FFE7039940F60040C4F2020008602A
:1006E0001DE00098042807D1FFE7039941F20000BC
:1006F000C4F20200086011E00098072807D1FFE764
:10070000039941F60040C4F20200086005E0039935
:100710000020C4F202000860FFE7FFE7FFE7FFE701
:10072000FFE7FFE705B0704780B586B00020009076
:10073000059000F03DF800988DF81300012003901B
:1007400032200190FFE72D20FFF77EFE02900398F4
:10075000012829D1FFE7029830BBFFE70198FFF796
:1007600071FF2D20FFF770FE02900298D8B9FFE7C5
:100770009DF81300013049F69A11C1F69911A0FBBA
:10078000012101EB8101A0EB41008DF813009DF8E0
:10079000130000F023F8FFE72D20FFF755FE08B9FE
:1007A000FFE7F9E7FFE7FFE702980390CBE70000D8
:1007B00080B582B0FFF70AFF2D2001900021FFF7DE
:1007C000AFFD01980121FFF71FFE07201621272208
:1007D000092300F04DF802B080BD000080B586B05E
:1007E0008DF8170040F60810ADF8140040F20450E0
:1007F000C0F20670049040F20010C0F20230039084
:1008000040F26B00C2F2000000788DF8080040F260
:100810006A00C2F2000000788DF8090040F2690019
:10082000C2F2000000788DF80A0040F26800C2F2BF
:10083000000000788DF80B0000200190FFE7019880
:10084000032813DCFFE7019A02A8801A90F903003D
:100850009DF8173003A9C95CD14001F00101FFF7F1
:1008600007FEFFE7019801300190E8E706B080BD80
:1008700080B586B08DF817008DF816108DF815200C
:100880008DF814309DF817008DF810009DF81600B3
:100890008DF811009DF815008DF812009DF81400D8
:1008A0008DF813009DF8170040F26B01C2F20001B1
:1008B00008709DF8160040F26A01C2F2000108704B
:1008C0009DF8150040F26901C2F2000108709DF820
:1008D000140040F26801C2F2000108700020039089
:1008E000FFE70398032820DCFFE7039904A80190A1
:1008F000405601210291FFF713FD019803994056DC
:1009000000210091FFF780FD00990198039A80561D
:10091000FFF75CFD01980299039A8056FFF736FDB8
:10092000FFE7039801300390DBE706B080BDF1EEEE
:10093000100A4FF6FF71C0F2C03120EA010040F00A
:100940004070E1EE100A70476809000800000020BE
:1009500008000000FC0100087009000808000020E1
:10096000680600001C0200080024F40000000000DB
:040000050800019955
:00000001FF
