:020000040800F2
:1000000068060020650200086D0200086F02000803
:100010007102000873020008750200080000000069
:10002000000000000000000000000000770200084F
:1000300079020008000000007B0200087D02000831
:100040007F0200087F0200087F0200087F0200088C
:100050007F0200087F0200087F0200087F0200087C
:100060007F0200087F0200087F0200087F0200086C
:100070007F0200087F0200087F0200087F0200085C
:100080007F0200087F0200087F02000800000000D5
:100090000000000000000000000000007F020008D7
:1000A0007F0200087F0200087F0200087F0200082C
:1000B0007F0200087F0200087F0200087F0200081C
:1000C0007F0200087F0200087F0200087F0200080C
:1000D0007F0200087F0200087F0200080000000085
:1000E0007F0200087F0200087F0200080000000075
:1000F0000000000000000000000000007F02000877
:10010000000000007F0200087F0200087F02000854
:1001100000000000000000000000000000000000DF
:100120007F0200087F0200087F0200087F020008AB
:100130007F02000800000000000000000000000036
:100140000000000000000000000000007F02000826
:100150007F0200087F0200087F0200087F0200087B
:100160007F0200087F02000800000000000000007D
:10017000000000000000000000000000000000007F
:10018000000000007F0200080000000000000000E6
:100190007F0200087F02000800F002F800F052F829
:1001A00014A696E8000CB244B344DA4501D100F03D
:1001B00049F8BAE80F000FA696E83000A5EB040551
:1001C00004EB0607AAEB0704A7F101074FEA151590
:1001D0004FEA3414A4F10104AC4201D300F032F828
:1001E00013F0010F18BFFB1A43F0010300F001F8F0
:1001F000DBE71847940A0000B40A0000103A24BF55
:1002000078C878C1FAD8520724BF30C830C144BF7B
:1002100004680C6070470000704700000023002451
:1002200000250026103A28BF78C1FBD8520728BF06
:1002300030C148BF0B6070471FB500F017FD1FBDF0
:1002400010B510BD00F031F81146FFF7F5FF00F0D2
:100250006BFA00F04FF803B4FFF7F2FF03BC00F0B5
:1002600057F800000948804709480047FEE7FEE7C5
:10027000FEE7FEE7FEE7FEE7FEE7FEE7FEE7FEE756
:1002800004480549054A064B70470000310600083E
:10029000990100086800002068060020680200201C
:1002A00068020020704770477047754600F02CF8D0
:1002B000AE4605006946534620F00700854618B053
:1002C00020B5FFF7DDFFBDE820404FF000064FF0FE
:1002D00000074FF000084FF0000BAC46ACE8C00937
:1002E000ACE8C009ACE8C009ACE8C00921F00701DE
:1002F0008D46704710B50446AFF300802046BDE838
:100300001040FFF7A8BF0000004870470800002019
:1003100001491820ABBEFEE726000200704700002E
:1003200080B584B08DF80F0002919DF90F0001A9EE
:100330006A4600F09BF99DF90F0000F0F9F89DF96D
:100340000F00029900F002F804B080BD80B584B0BF
:100350008DF80F0002919DF90F0001A96A4600F087
:1003600085F900984100032000FA01F2019908681C
:100370009043086002980099490000FA01F201993F
:1003800008681043086004B080BD000080B584B0E8
:100390008DF80F0002919DF90F0001A96A4600F047
:1003A00065F900984100032000FA01F2019988687C
:1003B0009043886002980099490000FA01F201997F
:1003C00088681043886004B080BD000080B584B0A8
:1003D0008DF80F0002919DF90F0001A96A4600F007
:1003E00045F90099012000FA01F20199486890430B
:1003F00048600298009900FA01F201994868104398
:10040000486004B080BD000080B584B08DF80F0056
:1004100002919DF90F0001A96A4600F027F90098A2
:100420004100032000FA01F20199C8689043C860B6
:1004300002980099490000FA01F20199C868104336
:10044000C86004B080BD000080B584B08DF80F0096
:100450009DF90F0002A901AA00F008F902980069AD
:100460000199C84000F001000090009804B080BDE0
:1004700080B584B08DF80F0002919DF90F0001A99D
:100480006A4600F0F3F80298012809D1FFE70298C4
:10049000009900FA01F2019948691043486108E0A7
:1004A0000099012000FA01F20199486990434861DE
:1004B000FFE704B080BD000043F63001C4F2020142
:1004C000086840F0010008607047000043F6300102
:1004D000C4F20201086840F00200086070470000A2
:1004E00043F63001C4F20201086840F004000860DD
:1004F0007047000043F63001C4F20201086840F082
:10050000080008607047000043F63001C4F20201A1
:10051000086840F0100008607047000043F63001A2
:10052000C4F20201086840F08000086070470000D3
:1005300080B584B08DF80F009DF90F0002A901AAC3
:1005400000F094F802980021C4F20201884203D11D
:10055000FFE7FFF7B1FFFFE7029840F60001C4F2A2
:100560000201884203D1FFE7FFF7BAFFFFE70298D5
:1005700040F20041C4F20201884203D1FFE7FFF7D5
:10058000A5FFFFE7029840F60041C4F2020188424D
:1005900003D1FFE7FFF7AEFFFFE7029841F200014A
:1005A000C4F20201884203D1FFE7FFF7ADFFFFE786
:1005B000029841F60041C4F20201884203D1FFE7EC
:1005C000FFF7ACFFFFE704B080BD000043F6000179
:1005D000C4F20201086840F001000860FFE743F63A
:1005E0000000C4F2020000688007002801D4FFE781
:1005F000F5E743F60801C4F20201086820F00300A1
:10060000086008680860FFE743F60800C4F20200CB
:10061000006810F00C0F01D0FFE7F5E740F2000191
:10062000C2F2000142F20040C0F2F40008607047DC
:100630004EF68851CEF20001086840F47000086060
:100640007047000082B0019000200090FFE7009802
:1006500001994FF47A725143884205DAFFE7FFE7C8
:10066000009801300090F2E702B0704785B08DF835
:100670001300039102929DF8130000F00F00019007
:100680000198029908609DF91300001100900098EC
:1006900030B9FFE703990020C4F20200086041E08E
:1006A0000098012807D1FFE7039940F20040C4F207
:1006B0000200086035E00098022807D1FFE703999F
:1006C00040F60000C4F20200086029E00098032808
:1006D00007D1FFE7039940F60040C4F2020008602A
:1006E0001DE00098042807D1FFE7039941F20000BC
:1006F000C4F20200086011E00098072807D1FFE764
:10070000039941F60040C4F20200086005E0039935
:100710000020C4F202000860FFE7FFE7FFE7FFE701
:10072000FFE7FFE705B0704780B586B00020009076
:10073000059000F03DF800988DF81300012003901B
:1007400032200190FFE72D20FFF77EFE02900398F4
:10075000012829D1FFE7029830BBFFE70198FFF796
:1007600071FF2D20FFF770FE02900298D8B9FFE7C5
:100770009DF81300013049F69A11C1F69911A0FBBA
:10078000012101EB8101A0EB41008DF813009DF8E0
:10079000130000F01FF8FFE72D20FFF755FE08B902
:1007A000FFE7F9E7FFE7FFE702980390CBE70000D8
:1007B00080B582B0FFF70AFF2D2001900021FFF7DE
:1007C000AFFD01980121FFF71FFE00F0A1F902B073
:1007D00080BD000080B594B08DF84F009DF84F00AB
:1007E00018BBFFE7052000211191FFF741FE119989
:1007F0000620FFF73DFE11990720FFF739FE1199FA
:100800001620FFF735FE11992720FFF731FE1199C9
:100810000920FFF72DFE082001211291FFF728FE85
:1008200012991A20FFF724FE6FE19DF84F0001286E
:1008300023D1FFE7052001211091FFF719FE0620C3
:1008400000210F91FFF714FE0F990720FFF710FE0C
:1008500010991620FFF70CFE10992720FFF708FECD
:1008600010990920FFF704FE10990820FFF700FEF9
:1008700010991A20FFF7FCFD46E19DF84F00022871
:1008800023D1FFE7052000210D91FFF7F1FD0D9920
:100890000620FFF7EDFD072001210E91FFF7E8FD8F
:1008A0000D991620FFF7E4FD0D992720FFF7E0FDD5
:1008B0000E990920FFF7DCFD0D990820FFF7D8FD00
:1008C0000E991A20FFF7D4FD1DE19DF84F00032873
:1008D00023D1FFE7052000210B91FFF7C9FD0B99FC
:1008E0000620FFF7C5FD0B990720FFF7C1FD0B9907
:1008F0001620FFF7BDFD272001210C91FFF7B8FD61
:100900000C990920FFF7B4FD0B990820FFF7B0FD03
:100910000C991A20FFF7ACFDF4E09DF84F00042875
:1009200023D1FFE7052001210A91FFF7A1FD062051
:1009300000210991FFF79CFD09990720FFF798FD19
:100940000A991620FFF794FD0A992720FFF790FDDA
:1009500009990920FFF78CFD09990820FFF788FD08
:100960000A991A20FFF784FDCBE09DF84F00052877
:1009700023D1FFE7052000210791FFF779FD06202D
:1009800001210891FFF774FD07990720FFF770FD1B
:1009900007991620FFF76CFD08992720FFF768FDDF
:1009A00007990920FFF764FD07990820FFF760FD0C
:1009B00008991A20FFF75CFDA2E09DF84F00062879
:1009C00023D1FFE7052000210591FFF751FD062007
:1009D00001210691FFF74CFD05990720FFF748FD1F
:1009E00005991620FFF744FD05992720FFF740FDE4
:1009F00005990920FFF73CFD05990820FFF738FD10
:100A000006991A20FFF734FD79E09DF84F0007287A
:100A100023D1FFE7052000210391FFF729FD03996A
:100A20000620FFF725FD03990720FFF721FD16207B
:100A300001210491FFF71CFD04992720FFF718FD01
:100A400004990920FFF714FD04990820FFF710FD11
:100A500004991A20FFF70CFD50E09DF84F0008287C
:100A600022D1FFE7052000210291FFF701FD029945
:100A70000620FFF7FDFC02990720FFF7F9FC029919
:100A80001620FFF7F5FC02992720FFF7F1FC0299E9
:100A90000920FFF7EDFC02990820FFF7E9FC1A2076
:100AA0000121FFF7E5FC28E09DF84F00092823D13C
:100AB000FFE7052000210091FFF7DAFC00990620EE
:100AC000FFF7D6FC00990720FFF7D2FC009916200B
:100AD000FFF7CEFC272001210191FFF7C9FC009907
:100AE0000920FFF7C5FC00990820FFF7C1FC019918
:100AF0001A20FFF7BDFCFFE7FFE7FFE7FFE7FFE78F
:100B0000FFE7FFE7FFE7FFE7FFE714B080BD000066
:100B100080B58AB00520009001210991FFF700FC03
:100B2000009800210691FFF76FFC00980699FFF7E7
:100B30004DFC00980999FFF729FC099906200190BE
:100B4000FFF7EEFB01980699FFF75EFC0198069906
:100B5000FFF73CFC01980999FFF718FC0999072059
:100B60000290FFF7DDFB02980699FFF74DFC029813
:100B70000699FFF72BFC02980999FFF707FC0999E2
:100B800016200390FFF7CCFB03980699FFF73CFC77
:100B900003980699FFF71AFC03980999FFF7F6FBEB
:100BA000099927200490FFF7BBFB04980699FFF7EB
:100BB0002BFC04980699FFF709FC04980999FFF7A4
:100BC000E5FB099909200590FFF7AAFB059806990E
:100BD000FFF71AFC05980699FFF7F8FB05980999A5
:100BE000FFF7D4FB099908200790FFF799FB0699B6
:100BF0000798FFF709FC06990798FFF7E7FB0798A6
:100C00000999FFF7C3FB09991A200890FFF788FBA1
:100C100006990898FFF7F8FB06990898FFF7D6FBA6
:100C200008980999FFF7B2FB00980699FFF720FC96
:100C300001980699FFF71CFC02980699FFF718FC2B
:100C400003980699FFF714FC04980699FFF710FC27
:100C500005980699FFF70CFC07980999FFF708FC1F
:100C600008980999FFF704FC0AB080BDF1EE100A5C
:100C70004FF6FF71C0F2C03120EA010040F0407031
:100C8000E1EE100A70470000A80C000800000020E8
:100C900008000000FC010008B00C0008080000205B
:100CA000600600001C0200080024F40000000000A0
:040000050800019955
:00000001FF
